:020000040800F2
:100000000050002009170008D1150008D915000874
:10001000E1150008E9150008F115000800000000CE
:10002000000000000000000000000000F9150008BA
:100030000516000800000000111600081D16000833
:1000400051170008511700085117000851170008F0
:1000500051170008511700085117000851170008E0
:1000600051170008511700085117000851170008D0
:1000700051170008511700085117000851170008C0
:1000800029160008511700085117000851170008D9
:100090003D160008511700085117000851170008B5
:1000A0005117000851170008511700085117000890
:1000B0005117000851170008511700085116000881
:1000C0005117000851170008511700085117000870
:1000D0005117000851170008511700085117000860
:1000E00051170008511700085117000800000000C0
:1000F0000000000000000000000000000000000000
:0C01000000000000000000005FF808F1A3
:10010C0010B5054C237833B9044B13B10448AFF345
:10011C0000800123237010BDD801002000000000D6
:10012C0014CC000808B5034B1BB103490348AFF3CB
:10013C00008008BD00000000DC01002014CC000889
:10014C0080B483B000AF7860034A7B68136000BF53
:10015C000C37BD4680BC7047F401002080B485B0DC
:10016C0000AFF860B9607A603B60FB68BA681A60EF
:10017C00FB6800221A71FB6800225A71FB68FF228F
:10018C009A71FB680022DA717B683A681A607B68A6
:10019C0000221A717B6800225A717B6800229A71C6
:1001AC007B68FF22DA717B6800221A727B6800225E
:1001BC005A727B6800229A72054B00221A70054B0A
:1001CC00FF221A7000BF1437BD4680BC704700BFB9
:1001DC00F9010020F801002080B582B000AF7860F2
:1001EC0039603B681A793B685B799A4203D079682D
:1001FC00386800F041F87B685A797B681B799A4221
:10020C0016D00D4B1B687A681268796849790A44D4
:10021C00104698477B685B790133DAB27B685A7178
:10022C007B685A797B689B791340DAB27B685A7188
:10023C0000BF0837BD4680BDF401002080B483B0F8
:10024C0000AF78600B46FB707B681A687B681B7983
:10025C00591CC8B2796808711344FA781A707B6813
:10026C001A797B68DB791340DAB27B681A7100BFAC
:10027C000C37BD4680BC704780B584B000AF786049
:10028C0039607B681B79FB73DEE07B689B79062BFE
:10029C0000F2C78001A252F823F000BFC50200088B
:1002AC00DF0200080B030008370300086303000893
:1002BC007B030008D10300087B681B687A685279BD
:1002CC0013441B78552B40F0B0807B6801229A7147
:1002DC00ABE07B681B687A68527913441B784E2B11
:1002EC0003D17B6802229A71A0E07B6800229A718C
:1002FC007B685B79013BDAB27B685A7196E07B686C
:10030C001B687A68527913441B78452B03D17B68A0
:10031C0003229A718AE07B6800229A717B685B7970
:10032C00013BDAB27B685A7180E07B681B687A68A3
:10033C00527913441B78522B03D17B6804229A7197
:10034C0074E07B6800229A717B685B79013BDAB2BE
:10035C007B685A716AE07B6805229A717B681B681E
:10036C007A68527913441A787B681A725EE07B685B
:10037C001B687A68527913441B783A2B18D17B6826
:10038C001B7A83F03603DAB27B689A727B6806229A
:10039C009A717B685B790133DAB27B685A727B683D
:1003AC005A7A7B68DB791340DAB27B685A723DE08B
:1003BC007B6800229A717B685B79013BDAB27B68BF
:1003CC005A7133E07B681B7A013BDAB27B681A7294
:1003DC007B681B7A002B0CD07B689A7A7B681B6835
:1003EC00796849790B441B785340DAB27B689A726E
:1003FC001CE07B681B687A68527913441A787B6816
:10040C009B7A9A4209D17B681B687A68527A1344AA
:10041C001B783968184600F023F87B6800229A7123
:10042C0004E07B6800229A7100E000BF7B685B7976
:10043C000133DAB27B685A717B685A797B68DB7955
:10044C001340DAB27B685A717B685B79FA7B9A420B
:10045C007FF41BAF00BF00BF1037BD4680BD00BF8F
:10046C0080B582B000AF03463960FB71FB79F02B8D
:10047C0005D1FB793968184600F00BF805E0FB79DB
:10048C003968184600F005F800BF00BF0837BD46B4
:10049C0080BD80B582B000AF03463960FB71FB793B
:1004AC00F02B0FD10222F021386800F025F80D2135
:1004BC00386800F0D0F83B68DB791946386800F0F2
:1004CC00CAF815E03B681B683A68127913441B782C
:1004DC0002221946386800F00FF8FF21386800F046
:1004EC00BAF83B68DB791946386800F0B4F800BFFD
:1004FC0000BF0837BD4680BD80B483B000AF7860C4
:10050C000B46FB701346BB707B680022DA717B686C
:10051C001A687B681B79591CC8B279680871134436
:10052C0055221A707B681A797B689B791340DAB272
:10053C007B681A717B681A687B681B79591CC8B276
:10054C007968087113444E221A707B681A797B689B
:10055C009B791340DAB27B681A717B681A687B68E6
:10056C001B79591CC8B279680871134445221A705A
:10057C007B681A797B689B791340DAB27B681A71B5
:10058C007B681A687B681B79591CC8B2796808713A
:10059C00134452221A707B681A797B689B7913403A
:1005AC00DAB27B681A717B681A687B681B79591CF4
:1005BC00C8B2796808711344BA780132D2B21A7091
:1005CC007B681A797B689B791340DAB27B681A7165
:1005DC007B681A687B681B79591CC8B279680871EA
:1005EC0013443A221A707B681A797B689B79134002
:1005FC00DAB27B681A717B681A687B681B79591CA4
:10060C00C8B2796808711344FA781A707B681A7941
:10061C007B689B791340DAB27B681A717B68DB7953
:10062C005AB2BB780133DBB25BB253405BB2DAB285
:10063C007B68DA717B68DA79FB785340DBB283F044
:10064C003603DAB27B68DA717B68DB7918460C37D3
:10065C00BD4680BC704780B483B000AF78600B4659
:10066C00FB707B681A687B681B79591CC8B2796867
:10067C0008711344FA781A707B681A797B689B7935
:10068C001340DAB27B681A717B68DA79FB785340D5
:10069C00DAB27B68DA717B68DB7918460C37BD46B9
:1006AC0080BC704780B582B000AF786000BF01217C
:1006BC0078680BF0F3F90346012BF8D000BF00BFAC
:1006CC000837BD4680BD000080B500AF01F03CF896
:1006DC002A4B2B4A2B492C48FFF740FD2B48FFF7A0
:1006EC002FFD2B480BF000FA00F060F800F018FA20
:1006FC0000F0F8F90BF0F8F800F0B2F800F0DEF8C2
:10070C0000F07CF90021234806F060FC042122480B
:10071C0006F05CFC01224FF40071204801F09EFDB4
:10072C00012201211D4801F099FD1A4B1B68322250
:10073C005A63194B1B6832229A6300F089FA0346FC
:10074C00002B01D100BFFDE7002000F075FC00215B
:10075C00002000F0E7FC01221149124800F076FD60
:10076C00114B01221A7000F0C9FB05490648FFF72E
:10077C0033FD00F015FA00BFF7E700BF240300209B
:10078C00240500202404002030050020B1060008B8
:10079C004902000894020020DC02002000080140FD
:1007AC00040000202CCC00080000002080B594B080
:1007BC0000AF07F128032822002118460BF096FD04
:1007CC0007F1140300221A605A609A60DA601A6109
:1007DC003B1D00221A605A609A60DA600123BB62EA
:1007EC004FF48033FB6200233B630123BB63022382
:1007FC007B644FF48033BB644FF4E013FB6407F16C
:10080C002803184605F088FE0346002B01D000F0A3
:10081C00C1F90F237B610223BB610023FB614FF401
:10082C0080633B6200237B6207F1140302211846AC
:10083C0006F0F4F80346002B01D000F0ABF91023BE
:10084C007B6000233B613B1D184606F061FA0346B2
:10085C00002B01D000F09EF900BF5037BD4680BD83
:10086C0080B500AF124B134A1A60114B124A5A60F2
:10087C000F4B00229A600E4B0022DA600C4B4FF4A7
:10088C0080421A610A4B00225A61094B00229A617C
:10089C00074B0022DA61064B00221A62044801F071
:1008AC00F5FC0346002B01D000F074F900BF80BDAD
:1008BC00FC01002000540040801A060080B596B060
:1008CC0000AF07F1480300221A605A609A60DA60A0
:1008DC0007F1400300221A605A6007F1240300223A
:1008EC001A605A609A60DA601A615A619A613B1D0B
:1008FC002022002118460BF0F9FC3E4B3E4A1A60B0
:10090C003C4B47225A603B4B00229A60394B632286
:10091C00DA60384B00221A61364B00225A61354B93
:10092C0000229A61334806F0A9FA0346002B01D045
:10093C0000F030F94FF48053BB6407F148031946BB
:10094C002C4806F0A7FC0346002B01D000F022F93E
:10095C00284806F0E2FA0346002B01D000F01AF901
:10096C0000233B6400237B6407F1400319462148B4
:10097C0007F008F80346002B01D000F00BF96023B8
:10098C007B620023BB620023FB6200233B630023DA
:10099C007B630023BB630023FB6307F1240300226A
:1009AC001946144806F0B4FB0346002B01D000F0A6
:1009BC00F1F800237B600023BB600023FB60002365
:1009CC003B6100237B614FF40053BB6100233B620E
:1009DC003B1D1946074807F033F80346002B01D09E
:1009EC0000F0D8F8034800F09BFD00BF5837BD4617
:1009FC0080BD00BF94020020002C014080B58EB059
:100A0C0000AF07F1280300221A605A609A60DA607E
:100A1C0007F1200300221A605A603B1D00221A6065
:100A2C005A609A60DA601A615A619A612C4B4FF0E5
:100A3C0080421A602A4B47225A60294B00229A6046
:100A4C00274B6322DA60264B00221A61244B0022CA
:100A5C009A61234806F012FA0346002B01D000F0ED
:100A6C0099F84FF48053BB6207F1280319461C48D0
:100A7C0006F010FC0346002B01D000F08BF8184850
:100A8C0006F04BFA0346002B01D000F083F800234C
:100A9C003B6200237B6207F120031946104806F0E5
:100AAC0071FF0346002B01D000F074F860237B60CB
:100ABC000023BB600023FB6000237B613B1D0422F1
:100ACC001946074806F024FB0346002B01D000F022
:100ADC0061F8034800F024FD00BF3837BD4680BDE7
:100AEC00DC02002080B582B000AF0C4B5B690B4A76
:100AFC0043F001035361094B5B6903F001037B6015
:100B0C007B6800220021102000F07BFF102000F0F9
:100B1C0094FF00BF0837BD4680BD00BF00100240E7
:100B2C0080B485B000AF1A4B9B69194A43F010038F
:100B3C009361174B9B6903F01003FB60FB68144B2C
:100B4C009B69134A43F020039361114B9B6903F09B
:100B5C002003BB60BB680E4B9B690D4A43F004033A
:100B6C0093610B4B9B6903F004037B607B68084B20
:100B7C009B69074A43F008039361054B9B6903F09B
:100B8C0008033B603B6800BF1437BD4680BC704710
:100B9C000010024080B400AF72B600BF00BFFDE78A
:100BAC0080B500AF044B1B78DBB2002B01D000F0FA
:100BBC00A5F900BF80BD00BF000000200FB480B5B8
:100BCC00A4B000AF07F19C033B60381D3B68D7F81D
:100BDC00982080210BF07CFBC7F88C001B4B93F802
:100BEC009C32032B2BD13B1DC7F8883022E0D7F861
:100BFC008C30402BA8BF4023A7F8863002E00120A0
:100C0C0000F004FEB7F886301946D7F888000AF0D1
:100C1C0045FF0346012BF2D0B7F88630D7F8882071
:100C2C001344C7F88830B7F88630D7F88C20D31A1D
:100C3C00C7F88C30D7F88C30002BD8DC00E000BF24
:100C4C009037BD46BDE8804004B07047540A002080
:100C5C0080B582B000AF6D48FFF7B0FF00F01CFB11
:100C6C0078216B48FFF7AAFF4FF4FA630122782131
:100C7C00684801F085FE0346002B04D06648FFF758
:100C8C009DFF0023BEE06548FFF798FF6448FFF71F
:100C9C0095FF644B7B6003E000BF7B68013B7B608E
:100CAC007B68002BF8D16048FFF788FFAE2200214B
:100CBC00782000F005FB20220021782000F000FBBA
:100CCC0010220021782000F0FBFAB02200217820BD
:100CDC0000F0F6FAC8220021782000F0F1FA002288
:100CEC000021782000F0ECFA10220021782000F08E
:100CFC00E7FA40220021782000F0E2FA812200215C
:100D0C00782000F0DDFAFF220021782000F0D8FADC
:100D1C00A1220021782000F0D3FAA622002178200D
:100D2C0000F0CEFAA8220021782000F0C9FA3F2268
:100D3C000021782000F0C4FAA4220021782000F0D1
:100D4C00BFFAD3220021782000F0BAFA0022002149
:100D5C00782000F0B5FAD5220021782000F0B0FA06
:100D6C00F0220021782000F0ABFAD9220021782063
:100D7C0000F0A6FA22220021782000F0A1FADA2253
:100D8C000021782000F09CFA12220021782000F03B
:100D9C0097FADB220021782000F092FA2022002121
:100DAC00782000F08DFA8D220021782000F088FA4E
:100DBC0014220021782000F083FAAF220021782041
:100DCC0000F07EFA2E220021782000F079FA1748E4
:100DDC00FFF7F4FE1648FFF7F1FE002000F02CF9A7
:100DEC001448FFF7EBFE00F02BF8134B00221A808F
:100DFC00114B00225A80104B01225A710F48FFF7F9
:100E0C00DDFE012318460837BD4680BD34CC0008F2
:100E1C005CCC0008FC0100208CCC0008B4CC000891
:100E2C00CCCC000890D00300F0CC000820CD0008FA
:100E3C0048CD000870CD00083C0900209CCD00086E
:100E4C0080B5A4B002AF2748FFF7B8FE002387F89F
:100E5C0087303CE097F8873019462348FFF7AEFE01
:100E6C0097F88730503BDBB21A460021782000F00F
:100E7C0027FA00220021782000F022FA102200210B
:100E8C00782000F01DFA40233B7197F88730DB0186
:100E9C00164A99183B1D0133802218460BF05AFA5A
:100EAC003A1D4FF0FF33009381237821104801F055
:100EBC0045FB0346002B05D097F8873019460D48A3
:100ECC00FFF77CFE97F88730013387F8873097F867
:100EDC008730072BBED90848FFF770FE00BF883754
:100EEC00BD4680BDB8CD000800CE00083C050020F2
:100EFC00FC0100202CCE00084CCE000880B582B03E
:100F0C0000AF0023FB71414B1B78022B46D0022B08
:100F1C0078DC002B02D0012B0CD073E03C48FFF79F
:100F2C004DFE3C4B00221A703B4B00221A70374B83
:100F3C0001221A70394B1B78DBB2002B5FD1354B79
:100F4C001B7819463648FFF739FE324B1B78503B5D
:100F5C00DBB21A460021782000F0B2F90022002101
:100F6C00782000F0ADF910220021782000F0A8F9CB
:100F7C00284B1B78DB012B4A13443B6080233A68D7
:100F8C004021782000F0BAF9224B1B7819462648EC
:100F9C00FFF714FE1D4B02221A7030E01F4B1B781A
:100FAC00DBB2002B1DD11B4B1B7819461F48FFF7DA
:100FBC0005FE184B1B780133DAB2164B1A70154B21
:100FCC001B78072B03D8114B01221A7019E0184813
:100FDC00FFF7F4FD104B01221A700C4B00221A7013
:100FEC000FE0FB790A2B0CD8FB790133FB710B4B0F
:100FFC001B78DBB219460F48FFF7E0FD01E000BF9C
:10100C0000E000BF00BF0837BD4680BD440A002089
:10101C0090CE0008450A0020000000203805002072
:10102C00B8CE00083C050020E0CE000804CF000834
:10103C002CCF000854CF000880B582B000AF034617
:10104C00FB71FB79002B01D1002300E0FF234FF44F
:10105C008062194603480BF049F900BF0837BD46BA
:10106C0080BD00BF3C05002080B483B000AF0346B8
:10107C00FB800B46BB801346FB70FB887F2B48D84C
:10108C00BB883F2B45D8254B1B79002B06D0FB7812
:10109C00002B0CBF01230023DBB2FB70FB78012B70
:1010AC001AD1FA88BB88DB0898B20346DB011344DB
:1010BC001B4AD35C5AB2BB8803F00703012101FA27
:1010CC0003F35BB2134359B2FA880346DB011344B2
:1010DC00C9B2134AD1541DE0FA88BB88DB0898B218
:1010EC000346DB0113440E4AD35C5AB2BB8803F0AF
:1010FC000703012101FA03F35BB2DB435BB213403C
:10110C0059B2FA880346DB011344C9B2044AD154DC
:10111C0000E000BF0C37BD4680BC70473C09002086
:10112C003C05002080B483B000AF03460A46FB8028
:10113C001346BB80054AFB881380044ABB88538046
:10114C0000BF0C37BD4680BC704700BF3C09002077
:10115C0080B586B000AF03463960FB711346BB7196
:10116C00394B1B881A463B681B7813447F2B07DCD2
:10117C00354B5B881A463B685B7813443F2B01DD8B
:10118C0000235DE000237B614BE03B685A68FB79F0
:10119C00203B3968497801FB03F319467B690B4402
:1011AC005B0013441B88FB6000233B6130E0FA6852
:1011BC003B6902FA03F303F40043002B10D0224BDB
:1011CC001A883B699BB2134498B21F4B5A887B69AF
:1011DC009BB213449BB2BA791946FFF745FF14E052
:1011EC00194B1A883B699BB2134498B2164B5A8818
:1011FC007B699BB2134499B2BB79002B0CBF0123C2
:10120C000023DBB21A46FFF72FFF3B6901333B612A
:10121C003B681B781A463B699342C8D37B69013300
:10122C007B613B685B781A467B699342ADD3064B76
:10123C001B883A68127813449AB2034B1A80FB79D4
:10124C0018461837BD4680BD3C09002080B584B0D7
:10125C0000AFF860B9601346FB7112E0FB681B78B5
:10126C00FA79B9681846FFF773FF03461A46FB680C
:10127C001B789A4202D0FB681B7808E0FB680133AC
:10128C00FB60FB681B78002BE8D1FB681B781846C9
:10129C001037BD4680BD000080B483B000AF074B53
:1012AC007B6002E07B68013B7B607B68002BF9D1A3
:1012BC0000BF00BF0C37BD4680BC704790D0030008
:1012CC0080B586B002AF0346FB710B46BB7113466B
:1012DC007B71BB793B737B797B73FB7999B207F19B
:1012EC000C024FF0FF3300930223034801F026F960
:1012FC0000BF1037BD4680BDFC01002080B584B016
:10130C0000AF3A601A460346FB710B46BB7113469D
:10131C00BB80154ABB791370BB881A4639681348D1
:10132C000BF018F800E030BF114B1B78DBB2002B30
:10133C00F9D10F4B01221A70FB7999B2BB8801339A
:10134C009BB2094A0B4801F0F7F90346FB73FB7B90
:10135C00002B05D0064B00221A700748FFF72EFC15
:10136C0000BF1037BD4680BD440900204509002050
:10137C0038050020FC0100208CCF000880B485B01B
:10138C0000AF154B9B69144A43F001039361124B58
:10139C009B6903F00103BB60BB680F4BDB690E4A12
:1013AC0043F08053D3610C4BDB6903F080537B60BB
:1013BC007B680A4B5B68FB60FB6823F0E063FB60B7
:1013CC00FB6843F08063FB60044AFB68536000BF1A
:1013DC001437BD4680BC704700100240000001402D
:1013EC0080B588B000AF786007F1100300221A6056
:1013FC005A609A60DA607B681B682C4A934251D120
:10140C002B4B9B692A4A43F008039361284B9B6939
:10141C0003F00803FB60FB68C0233B6112237B6174
:10142C000323FB6107F110031946224800F092FDDB
:10143C001F4BDB691E4A43F40013D3611C4BDB6961
:10144C0003F40013BB60BB681B4B1C4A1A601A4B9D
:10145C0010225A60184B00229A60174B8022DA60D7
:10146C00154B00221A61144B00225A61124B0022B8
:10147C009A61114B0022DA610F4800F0F9FA034629
:10148C00002B01D0FFF786FB7B680B4A5A630A4A94
:10149C007B685362002200211F2000F0B2FA1F204B
:1014AC0000F0CBFA00BF2037BD4680BD0054004091
:1014BC0000100240000C0140500200206C00024061
:1014CC0080B485B000AF78607B681B68124A934289
:1014DC000CD1124B9B69114A43F4006393610F4B7F
:1014EC009B6903F40063FB60FB6810E07B681B687E
:1014FC00B3F1804F0BD1094BDB69084A43F0010370
:10150C00D361064BDB6903F00103BB60BB6800BF12
:10151C001437BD4680BC7047002C014000100240BF
:10152C0080B588B000AF786007F1100300221A6014
:10153C005A609A60DA607B681B681F4A934219D123
:10154C001E4B9B691D4A43F0040393611B4B9B6923
:10155C0003F00403FB60FB684FF480733B610223D0
:10156C007B610223FB6107F110031946144800F05C
:10157C00F1FC1CE07B681B68B3F1804F17D10F4B5B
:10158C009B690E4A43F0040393610C4B9B6903F077
:10159C000403BB60BB6802233B6102237B61022313
:1015AC00FB6107F110031946054800F0D3FC00BF9E
:1015BC002037BD4680BD00BF002C0140001002400A
:1015CC000008014080B400AF00BFFDE780B400AF5D
:1015DC0000BFFDE780B400AF00BFFDE780B400AFF3
:1015EC0000BFFDE780B400AF00BFFDE780B400AFE3
:1015FC0000BFBD4680BC704780B400AF00BFBD4685
:10160C0080BC704780B400AF00BFBD4680BC704743
:10161C0080B500AF00F0DEF800BF80BD80B500AF34
:10162C00024800F057FB00BF80BD00BF50020020F5
:10163C0080B500AF024803F02BFB00BF80BD00BF9C
:10164C001C17002080B500AF024801F0C7FA00BF9C
:10165C0080BD00BFFC01002080B483B000AF786077
:10166C007B681B68054A934202D1054B00221A7015
:10167C0000BF0C37BD4680BC704700BF0054004013
:10168C003805002080B586B000AF7860144A154B41
:10169C00D31A7B617B693B61134B1B68002B02D116
:1016AC00114B124A1A60104B1A687B6813443A6942
:1016BC009A4207D20AF022FE03460C221A604FF01F
:1016CC00FF3309E0084B1B68FB60074B1A687B680B
:1016DC001344054A1360FB6818461837BD4680BD95
:1016EC000050002000040000480A0020601D00206B
:1016FC0080B400AF00BFBD4680BC7047FFF7F8FF59
:10170C000B480C490C4A002302E0D458C450043353
:10171C00C4188C42F9D3094A094C002301E0136028
:10172C000432A242FBD30AF0EFFDFEF7CDFF704767
:10173C0000000020D8010020D0D70008D8010020DC
:10174C005C1D0020FEE7000080B500AF084B1B6855
:10175C00074A43F010031360032000F047F90F20F1
:10176C0000F008F8FFF70AFE0023184680BD00BF02
:10177C000020024080B582B000AF7860124B1A682E
:10178C00124B1B7819464FF47A73B3FBF1F3B2FB8F
:10179C00F3F3184600F05FF90346002B01D0012348
:1017AC000EE07B680F2B0AD8002279684FF0FF30CF
:1017BC0000F027F9064A7B681360002300E0012340
:1017CC0018460837BD4680BD0C00002014000020D0
:1017DC001000002080B400AF054B1B781A46054B57
:1017EC001B681344034A136000BFBD4680BC70479E
:1017FC00140000204C0A002080B400AF024B1B6880
:10180C001846BD4680BC70474C0A002080B584B099
:10181C0000AF7860FFF7F0FFB8607B68FB60FB6897
:10182C00B3F1FF3F05D00A4B1B781A46FB681344F3
:10183C00FB6000BFFFF7E0FF0246BB68D31AFA68F3
:10184C009A42F7D800BF00BF1037BD4680BD00BF1D
:10185C001400002080B485B000AF78607B6803F082
:10186C000703FB600C4BDB68BB60BA684FF6FF03E9
:10187C001340BB60FB681A02BB68134343F0BF63A1
:10188C0043F40033BB60044ABB68D36000BF143719
:10189C00BD4680BC704700BF00ED00E080B400AFD7
:1018AC00044BDB681B0A03F007031846BD4680BCDB
:1018BC00704700BF00ED00E080B483B000AF03467A
:1018CC00FB7197F90730002B0BDBFB7903F01F0240
:1018DC00064997F907305B09012000FA02F241F83A
:1018EC00232000BF0C37BD4680BC704700E100E0F0
:1018FC0080B483B000AF03463960FB7197F90730B1
:10190C00002B0ADB3B68DAB20C4997F9073012015D
:10191C00D2B20B4483F800230AE03B68DAB20849E0
:10192C00FB7903F00F03043B1201D2B20B441A767D
:10193C0000BF0C37BD4680BC704700BF00E100E023
:10194C0000ED00E080B489B000AFF860B9607A6057
:10195C00FB6803F00703FB61FB69C3F10703042B6E
:10196C0028BF0423BB61FB690433062B02D9FB6936
:10197C00033B00E000237B614FF0FF32BB6902FAAE
:10198C0003F3DA43BB681A407B699A404FF0FF318E
:10199C007B6901FA03F3D9437B680B401343184668
:1019AC002437BD4680BC704780B582B000AF7860EC
:1019BC007B68013BB3F1807F01D301230FE00A4A1E
:1019CC007B68013B53600F214FF0FF30FFF790FF16
:1019DC00054B00229A60044B07221A60002318461C
:1019EC000837BD4680BD00BF10E000E080B582B076
:1019FC0000AF78607868FFF72DFF00BF0837BD4651
:101A0C0080BD80B586B000AF0346B9607A60FB73C9
:101A1C0000237B61FFF742FF78617A68B9687869C7
:101A2C00FFF790FF024697F90F3011461846FFF763
:101A3C005FFF00BF1837BD4680BD80B582B000AFD8
:101A4C000346FB7197F907301846FFF735FF00BFC7
:101A5C000837BD4680BD80B582B000AF786078682D
:101A6C00FFF7A2FF034618460837BD4680BD0000AD
:101A7C0080B485B000AF78600023FB607B68002BDE
:101A8C0001D1012343E07B681B681A46224B1344A7
:101A9C00224AA2FB03231B099A007B681A647B6809
:101AAC001F4ADA637B68022283F821207B681B685B
:101ABC001B68FB60FB6823F47F5323F03003FB604F
:101ACC007B685A687B689B681A437B68DB681A439F
:101ADC007B681B691A437B685B691A437B689B694B
:101AEC001A437B68DB691343FA681343FB607B681A
:101AFC001B68FA681A607B6800229A637B68012273
:101B0C0083F821207B68002283F8202000231846CC
:101B1C001437BD4680BC7047F8FFFDBFCDCCCCCC94
:101B2C000000024080B586B000AFF860B9607A6002
:101B3C003B600023FB75FB6893F82030012B01D12F
:101B4C0002234BE0FB68012283F82020FB6893F80A
:101B5C002130DBB2012B3AD1FB68022283F8212021
:101B6C00FB6800229A63FB681B681A68FB681B6899
:101B7C0022F001021A603B687A68B968F86800F0D4
:101B8C00BCF9FB68DB6A002B08D0FB681B681A6881
:101B9C00FB681B6842F00E021A600FE0FB681B68C2
:101BAC001A68FB681B6822F004021A60FB681B6849
:101BBC001A68FB681B6842F00A021A60FB681B6813
:101BCC001A68FB681B6842F001021A6005E0FB68AA
:101BDC00002283F820200223FB75FB7D1846183762
:101BEC00BD4680BD80B584B000AF78600023FB7328
:101BFC007B6893F82130DBB2022B05D07B68042282
:101C0C009A630123FB7351E07B681B681A687B683D
:101C1C001B6822F00E021A607B681B681A687B68CE
:101C2C001B6822F001021A607B681B68224A9342EF
:101C3C0029D07B681B68214A934222D07B681B68A1
:101C4C001F4A93421AD07B681B681E4A934212D0DB
:101C5C007B681B681C4A93420AD07B681B681B4A32
:101C6C00934202D14FF480130EE04FF080730BE0DF
:101C7C004FF4803308E04FF4805305E04FF4807349
:101C8C0002E0102300E00123114A53607B6801221B
:101C9C0083F821207B68002283F820207B685B6B13
:101CAC00002B03D07B685B6B78689847FB7B1846EE
:101CBC001037BD4680BD00BF080002401C0002402A
:101CCC003000024044000240580002406C000240C8
:101CDC000000024080B584B000AF78607B68DB6B9D
:101CEC001B68FB607B681B681B68BB607B681B6C9C
:101CFC0004229A40FB681340002B4FD0BB6803F0C2
:101D0C000403002B4AD07B681B681B6803F020037C
:101D1C00002B07D17B681B681A687B681B6822F054
:101D2C0004021A607B681B68664A934229D07B6860
:101D3C001B68654A934222D07B681B68634A9342B6
:101D4C001AD07B681B68624A934212D07B681B686E
:101D5C00604A93420AD07B681B685F4A934202D167
:101D6C004FF480030EE04FF080630BE04FF48023C0
:101D7C0008E04FF4804305E04FF4806302E0402319
:101D8C0000E00423554A53607B68DB6A002B00F0AB
:101D9C0094807B68DB6A786898478EE07B681B6C64
:101DAC0002229A40FB681340002B56D0BB6803F00C
:101DBC000203002B51D07B681B681B6803F02003C7
:101DCC00002B0BD17B681B681A687B681B6822F0A0
:101DDC000A021A607B68012283F821207B681B6849
:101DEC00384A934229D07B681B68374A934222D0E9
:101DFC007B681B68354A93421AD07B681B68344A4F
:101E0C00934212D07B681B68324A93420AD07B689B
:101E1C001B68314A934202D14FF400130EE04FF08D
:101E2C0000730BE04FF4003308E04FF4005305E06F
:101E3C004FF4007302E0202300E00223274A536092
:101E4C007B68002283F820207B689B6A002B34D0AF
:101E5C007B689B6A786898472FE07B681B6C08222C
:101E6C009A40FB681340002B28D0BB6803F0080392
:101E7C00002B23D07B681B681A687B681B6822F0D8
:101E8C000E021A607B681A6C7B68DB6B012101FA0D
:101E9C0002F25A607B6801229A637B68012283F804
:101EAC0021207B68002283F820207B681B6B002B91
:101EBC0004D07B681B6B7868984700BF00BF103755
:101ECC00BD4680BD080002401C00024030000240AC
:101EDC0044000240580002406C00024000000240E6
:101EEC0080B483B000AF78607B6893F82130DBB2AC
:101EFC0018460C37BD4680BC704780B485B000AF27
:101F0C00F860B9607A603B60FB681A6CFB68DB6B4D
:101F1C00012101FA02F25A60FB681B683A685A60A8
:101F2C00FB685B68102B08D1FB681B687A689A60A9
:101F3C00FB681B68BA68DA6007E0FB681B68BA6864
:101F4C009A60FB681B687A68DA6000BF1437BD467C
:101F5C0080BC704780B48BB000AF786039600023D0
:101F6C007B6200233B6269E101227B6A02FA03F384
:101F7C00FB613B681B68FA691340BB61BA69FB697A
:101F8C009A4240F058813B685B689A4A93425ED013
:101F9C00984A934275D8984A934258D0964A93429D
:101FAC006FD8964A934252D0944A934269D8944A35
:101FBC0093424CD0924A934263D8924A934246D071
:101FCC00904A93425DD8122B2AD8122B59D801A2D1
:101FDC0052F823F05B200008352000084720000849
:101FEC00892000088F2000088F2000088F2000080F
:101FFC008F2000088F2000088F2000088F200008F9
:10200C008F2000088F2000088F2000088F200008E8
:10201C008F2000088F2000083D2000085120000868
:10202C00794A934213D02CE03B68DB683B6229E091
:10203C003B68DB6804333B6224E03B68DB680833B5
:10204C003B621FE03B68DB680C333B621AE03B6889
:10205C009B68002B02D104233B6213E03B689B6816
:10206C00012B05D108233B627B68FA691A6109E0F0
:10207C0008233B627B68FA695A6103E000233B62E8
:10208C0000E000BFBB69FF2B01D87B6801E07B68D7
:10209C0004337B61BB69FF2B02D87B6A9B0002E097
:1020AC007B6A083B9B003B617B691A680F213B698B
:1020BC0001FA03F3DB431A40396A3B6901FA03F373
:1020CC001A437B691A603B685B6803F08053002BF2
:1020DC0000F0B1804D4B9B694C4A43F00103936176
:1020EC004A4B9B6903F00103BB60BB68484A7B6A9F
:1020FC009B08023352F82330FB607B6A03F0030326
:10210C009B000F2202FA03F3DB43FA681340FB60D7
:10211C007B68404A934213D07B683F4A93420DD070
:10212C007B683E4A934207D07B683D4A934201D17B
:10213C00032306E0042304E0022302E0012300E071
:10214C0000237A6A02F0030292009340FA68134368
:10215C00FB602F497B6A9B080233FA6841F8232005
:10216C003B685B6803F48013002B06D02D4B9A68F8
:10217C002C49BB6913438B6006E02A4B9A68BB69F8
:10218C00DB43284913408B603B685B6803F4001306
:10219C00002B06D0234BDA682249BB691343CB6072
:1021AC0006E0204BDA68BB69DB431E491340CB6069
:1021BC003B685B6803F40033002B06D0194B5A685C
:1021CC001849BB6913434B6006E0164B5A68BB6950
:1021DC00DB43144913404B603B685B6803F480336A
:1021EC00002B21D00F4B1A680E49BB6913430B60AF
:1021FC0021E000BF0000321000003110000022105E
:10220C0000002110000012100000111000100240FC
:10221C000000014000080140000C0140001001408A
:10222C0000140140000401400B4B1A68BB69DB43EE
:10223C00094913400B607B6A01337B623B681A6867
:10224C007B6A22FA03F3002B7FF48EAE00BF00BF33
:10225C002C37BD4680BC70470004014080B483B06D
:10226C0000AF78600B467B8013467B707B78002B2D
:10227C0003D07A887B681A6103E07B881A047B6838
:10228C001A6100BF0C37BD4680BC704780B584B066
:10229C0000AF78607B68002B01D101232BE17B68B8
:1022AC0093F83D30DBB2002B06D17B68002283F81B
:1022BC003C207868FFF794F87B68242283F83D2053
:1022CC007B681B681A687B681B6822F001021A6025
:1022DC007B681B681A687B681B6842F400421A60B2
:1022EC007B681B681A687B681B6822F400421A60C2
:1022FC0004F0DCFCF8607B685B68814A934207D889
:10230C00FB68804A934294BF01230023DBB206E0B2
:10231C00FB687D4A934294BF01230023DBB2002B60
:10232C0001D00123E7E0FB68784AA2FB03239B0C56
:10233C00BB607B681B685B6823F03F017B681B6894
:10234C00BA680A435A607B681B681B6A23F03F011A
:10235C007B685B686A4A934202D8BB68013309E028
:10236C00BB684FF4967202FB03F3694AA2FB03238A
:10237C009B0901337A6812680B4313627B681B68F4
:10238C00DB6923F44F4222F0FF027B685B685C49F7
:10239C008B4219D8FB68591E7B685B685B00B1FBEC
:1023AC00F3F3591C40F6FC730B40002B0AD0FB686E
:1023BC00591E7B685B685B00B1FBF3F30133C3F31D
:1023CC000B0351E004234FE07B689B68002B11D179
:1023DC00FB68581E7B6859680B465B000B44B0FBCE
:1023EC00F3F30133C3F30B03002B0CBF01230023C6
:1023FC00DBB212E0FB68581E7B6859680B469B00E9
:10240C000B4499000B44B0FBF3F30133C3F30B0300
:10241C00002B0CBF01230023DBB2002B01D00123C6
:10242C0022E07B689B68002B0ED1FB68581E7B68F2
:10243C0059680B465B000B44B0FBF3F30133C3F359
:10244C000B0343F400430FE0FB68581E7B6859688C
:10245C000B469B000B4499000B44B0FBF3F3013388
:10246C00C3F30B0343F44043796809681343CB610E
:10247C007B681B681B6823F0C0017B68DA697B688A
:10248C001B6A1A437B681B680A431A607B681B68CB
:10249C009B6823F4034323F0FF037A6811697A687D
:1024AC00D26811437A6812680B4393607B681B688F
:1024BC00DB6823F0FF017B685A697B689B691A43D0
:1024CC007B681B680A43DA607B681B681A687B6848
:1024DC001B6842F001021A607B6800221A647B6858
:1024EC00202283F83D207B6800221A637B6800223F
:1024FC0083F83E20002318461037BD4680BD00BF30
:10250C00A08601007F841E00FF083D0083DE1B4374
:10251C00D34D621080B483B000AF78607B681B68C9
:10252C005B6903F08003802B03D17B681B6800225E
:10253C001A6100BF0C37BD4680BC704780B588B0AF
:10254C0002AFF8607A601A460B467B8113463B81DA
:10255C00FFF752F97861FB6893F83D30DBB2202B22
:10256C0040F0E0807B690093192301227049F868E0
:10257C0002F04EF80346002B01D00223D3E0FB6897
:10258C0093F83C30012B01D10223CCE0FB680122F3
:10259C0083F83C20FB681B681B6803F00103012BCC
:1025AC0007D0FB681B681A68FB681B6842F00102C5
:1025BC001A60FB681B681A68FB681B6822F40062CF
:1025CC001A60FB68212283F83D20FB68102283F8F7
:1025DC003E20FB6800221A64FB687A685A62FB682A
:1025EC003A895A85FB685B8D9AB2FB681A85FB6841
:1025FC00504ADA6279897B693A6AF86801F0C8FD59
:10260C000346002B01D001238DE000233B61FB68C6
:10261C001B685B693B61FB681B689B693B613B69A1
:10262C0066E07A69396AF86802F00CF90346002B07
:10263C000DD0FB681B6C042B07D1FB681B681A6858
:10264C00FB681B6842F400721A6001236BE0FB68A4
:10265C005B6A1A78FB681B681A61FB685B6A5A1C18
:10266C00FB685A62FB685B8D9BB2013B9AB2FB68BC
:10267C005A85FB681B8D013B9AB2FB681A85FB6877
:10268C001B685B6903F00403042B1BD1FB681B8DD7
:10269C00002B17D0FB685B6A1A78FB681B681A6101
:1026AC00FB685B6A5A1CFB685A62FB685B8D9BB2C9
:1026BC00013B9AB2FB685A85FB681B8D013B9AB2B1
:1026CC00FB681A857A69396AF86802F003F90346DF
:1026DC00002B0DD0FB681B6C042B07D1FB681B680F
:1026EC001A68FB681B6842F400721A6001231AE036
:1026FC00FB681B8D002B94D1FB681B681A68FB6868
:10270C001B6842F400721A60FB68202283F83D209B
:10271C00FB68002283F83E20FB68002283F83C20F3
:10272C00002300E0022318461837BD4680BD00BFC9
:10273C00020010000000FFFF80B586B000AFF8600B
:10274C007A601A460B467B8113463B8100233B6122
:10275C00FB6893F83D30DBB2202B40F00181834BBA
:10276C001B68DB08824AA2FB03231A0A13469B0050
:10277C0013449A0013443B613B69013B3B613B6949
:10278C00002B12D1FB6800221A63FB68202283F80D
:10279C003D20FB68002283F83E20FB681B6C43F055
:1027AC002002FB681A640223DBE0FB681B689B6950
:1027BC0003F00203022BDFD0FB6893F83C30012BB3
:1027CC0001D10223CDE0FB68012283F83C20FB6899
:1027DC001B681B6803F00103012B07D0FB681B6807
:1027EC001A68FB681B6842F001021A60FB681B68E0
:1027FC001A68FB681B6822F400621A60FB682122CD
:10280C0083F83D20FB68102283F83E20FB680022F1
:10281C001A64FB687A685A62FB683A895A85FB68C5
:10282C005B8D9AB2FB681A85FB68524ADA627A8928
:10283C00FB685A64FB681B8D002B73D0FB685B6BC9
:10284C00002B22D0FB685B6B4B4A9A62FB685B6B7C
:10285C004A4A1A63FB685B6B0022DA62FB685B6BAB
:10286C0000225A63FB68586BFB685B6A1946FB686D
:10287C001B6810331A46FB681B8DFFF753F9034690
:10288C00FB75FB7D002B39D113E0FB68202283F80C
:10289C003D20FB68002283F83E20FB681B6C43F054
:1028AC008002FB681A64FB68002283F83C20012339
:1028BC0057E0FB68002283F83C20FB681B685A68D1
:1028CC00FB681B6842F440725A60FB681B685A68CC
:1028DC00FB681B6842F400625A60FB681B681A684C
:1028EC00FB681B6842F480621A60FB681B681A68FC
:1028FC00FB681B6842F480721A602FE0FB68202290
:10290C0083F83D20FB68002283F83E20FB681B6C9B
:10291C0043F01002FB681A64FB68002283F83C2029
:10292C0001231EE0FB681B681A68FB681B6842F4F5
:10293C0080621A60FB681B681A68FB681B6842F4AB
:10294C0080721A60FB68002283F83C20FB681B68CD
:10295C005A68FB681B6842F4E0625A60002300E08E
:10296C00022318461837BD4680BD00BF0C0000205E
:10297C0089B5F8140000FFFFA14200085F4400086D
:10298C0080B58AB002AFF8607A603B600B467B8101
:10299C00FEF732FFF8610023BB61FB6893F83D3012
:1029AC00DBB2202B40F01181FB690093192301222B
:1029BC008849F86801F02CFE0346002B01D0022355
:1029CC0004E1FB6893F83C30012B01D10223FDE0BC
:1029DC00FB68012283F83C20FB681B681B6803F032
:1029EC000103012B07D0FB681B681A68FB681B6886
:1029FC0042F001021A60FB681B681A68FB681B68CE
:102A0C0022F400621A60FB68242283F83D20FB68E4
:102A1C0000221A64FB68704ADA62FB681B681A6849
:102A2C00FB681B6842F480721A60FB6900933B6878
:102A3C0000224FF00111F86801F0EAFD0346002B6B
:102A4C000DD0FB681B681B6803F48073B3F5807FA3
:102A5C0003D1FB684FF400721A640323B6E07B8940
:102A6C00DBB21A46FB681B6802F0FE021A61FEF725
:102A7C00C3FEF861FB681B685B6903F00203022B61
:102A8C000CBF01230023DBB2FB75FB681B685B6981
:102A9C0003F48063B3F5806F0CBF01230023DBB21A
:102AAC00BB7525E0FEF7A8FE0246FB69D31A3A680F
:102ABC009A4202D33B68002B03D1FB68A02283F817
:102ACC003D20FB681B685B6903F00203022B0CBF03
:102ADC0001230023DBB2FB75FB681B685B6903F405
:102AEC008063B3F5806F0CBF01230023DBB2BB7591
:102AFC00FB6893F83D30DBB2A02B05D0FB7D002B9F
:102B0C0002D1BB7D002BCDD0FB68202283F83D2069
:102B1C00FB681B685B6903F00203022B29D1FB687D
:102B2C001B681A68FB681B6842F400721A60002369
:102B3C003B61FB681B685B693B61FB681B689B69BD
:102B4C003B613B69FB690093192301222149F86819
:102B5C0001F05EFD0346002B01D0012336E0FB683B
:102B6C00202283F83D20FB68002283F83C200023C0
:102B7C002CE0FB681B681A68FB681B6842F4007247
:102B8C001A60FB681B686FF480625A61FB690093E2
:102B9C00192301220F49F86801F03AFD0346002B76
:102BAC0001D0012312E0BB690133BB61BA697B68B8
:102BBC009A42FFF432AFFB68202283F83D20FB6879
:102BCC00002283F83C20012300E002231846203722
:102BDC00BD4680BD020010000000FFFF80B588B02C
:102BEC0000AF78600023BB617B681B685B687B610E
:102BFC007B68DB6A3B617B6893F83E30FB737B68D8
:102C0C0093F83D30BB73FB7B102B03D0FB7B402B2D
:102C1C0040F0C1807B681B689B69BB617B681B684B
:102C2C005B69FB61FB6903F00103002B0DD13B6970
:102C3C00B3F52A0F03D03B69B3F12A4F01D101231D
:102C4C0000E00023012B00F03281FB6903F001034B
:102C5C00002B0CD07B695B0A03F00103002B06D020
:102C6C00786801F0DFFE786800F0E1FC92E0FB6927
:102C7C00DB0803F00103002B09D07B695B0A03F02E
:102C8C000103002B03D0786800F056FD82E0FB694D
:102C9C005B0803F00103002B09D07B695B0A03F08E
:102CAC000103002B03D0786800F06FFD72E0BB6964
:102CBC009B0803F00103002B3BD07B681B685B680F
:102CCC0003F40063B3F5006F00F0F380FB69DB09DC
:102CDC0003F00103002B0FD07B699B0A03F0010367
:102CEC00002B09D0FB699B0803F00103002B03D1D7
:102CFC00786800F039F94DE0FB699B0803F001039B
:102D0C00002B00F0D6807B695B0A03F00103002BDB
:102D1C0000F0CF80BB7B212B03D1786800F0C0F989
:102D2C00C7E0FB7B402B40F0C480786800F02EFAA3
:102D3C00BFE07B681B685B6803F40063B3F5006F4E
:102D4C0000F0B780FB699B0903F00103002B0FD047
:102D5C007B699B0A03F00103002B09D0FB699B08DC
:102D6C0003F00103002B03D1786800F0A7FA11E0FF
:102D7C00FB699B0803F00103002B00F09A807B6930
:102D8C005B0A03F00103002B00F09380786800F0DD
:102D9C005DFB8EE08DE07B681B6C002B04D07B68A8
:102DAC001B685B69FB6107E07B681B689B69BB6107
:102DBC007B681B685B69FB61FB695B0803F00103C3
:102DCC00002B12D07B695B0A03F00103002B0CD0A3
:102DDC007B681B6C002B03D07B681B689B69BB61F9
:102DEC00B969786800F028FF66E0FB691B0903F0FD
:102DFC000103002B09D07B695B0A03F00103002B54
:102E0C0003D0786800F062FF56E0BB7B212B02D028
:102E1C00BB7B292B25D1FB69DB0903F00103002BBC
:102E2C000FD07B699B0A03F00103002B09D0FB69CF
:102E3C009B0803F00103002B03D1786800F040FEDF
:102E4C0039E0FB699B0803F00103002B33D07B694D
:102E5C005B0A03F00103002B2DD0786800F06DFEA7
:102E6C0029E0FB699B0903F00103002B0FD07B6960
:102E7C009B0A03F00103002B09D0FB699B0803F0AC
:102E8C000103002B03D1786800F077FE14E0FB6996
:102E9C009B0803F00103002B0ED07B695B0A03F047
:102EAC000103002B08D0786800F0A5FE04E000BFF9
:102EBC0002E000BF00E000BF2037BD4680BD80B4FB
:102ECC0083B000AF786000BF0C37BD4680BC704744
:102EDC0080B483B000AF786000BF0C37BD4680BCB7
:102EEC00704780B483B000AF786000BF0C37BD462C
:102EFC0080BC704780B483B000AF78600B46FB7029
:102F0C0013463B8000BF0C37BD4680BC704780B475
:102F1C0083B000AF786000BF0C37BD4680BC7047F3
:102F2C0080B483B000AF786000BF0C37BD4680BC66
:102F3C00704780B483B000AF786000BF0C37BD46DB
:102F4C0080BC704780B483B000AF786000BF0C3792
:102F5C00BD4680BC704780B483B000AF786000BFC2
:102F6C000C37BD4680BC704780B584B000AF78602C
:102F7C007B6893F83D30FB737B6893F83E30BB73F2
:102F8C007B68DB6ABB607B681B8D002B50D1FB7BA5
:102F9C00212B4DD1BB68082B1DD0BB68202B1AD020
:102FAC00BB6813F5803F16D07B681B685A687B683A
:102FBC001B6822F4E0625A607B6811221A637B68FA
:102FCC00002283F83E207B68202283F83D2078681D
:102FDC00FEF742FB60E07B681B685A687B681B68E5
:102FEC0022F4E0625A607B681B681A687B681B6875
:102FFC0042F400721A607B6800221A637B682022FC
:10300C0083F83D207B6893F83E30DBB2402B07D130
:10301C007B68002283F83E207868FFF781FF3BE055
:10302C007B68002283F83E207868FEF715FB33E0BE
:10303C00FB7B212B05D0BB7B402B2DD1FB7B222B8B
:10304C002AD17B685B8D9BB2002B08D17B681B68F7
:10305C005A687B681B6822F480625A601CE07B68AB
:10306C0093F83E30DBB2402B03D1786800F08EF839
:10307C0012E07B685B6A1A787B681B681A617B6854
:10308C005B6A5A1C7B685A627B685B8D9BB2013B06
:10309C009AB27B685A85FFE700BF1037BD4680BDEA
:1030AC0080B584B000AF78607B68DB6AFB607B68BE
:1030BC0093F83D30DBB2212B64D17B685B8D9BB2E6
:1030CC00002B12D07B685B6A1A787B681B681A61CC
:1030DC007B685B6A5A1C7B685A627B685B8D9BB20F
:1030EC00013B9AB27B685A854CE0FB68082B1DD0DB
:1030FC00FB68202B1AD0FB6813F5803F16D07B6839
:10310C001B685A687B681B6822F4E0625A607B6813
:10311C0011221A637B68002283F83E207B682022F0
:10312C0083F83D207868FEF797FA2BE07B681B68E4
:10313C005A687B681B6822F4E0625A607B681B68E3
:10314C001A687B681B6842F400721A607B68002264
:10315C001A637B68202283F83D207B6893F83E300D
:10316C00DBB2402B07D17B68002283F83E207868C5
:10317C00FFF7D6FE06E07B68002283F83E207868D5
:10318C00FEF76AFA00BF1037BD4680BD80B584B02B
:10319C0000AF78607B6893F83D30FB737B681B6DE8
:1031AC00002B1DD17B68DB6C012B0BD17B689B6CDE
:1031BC00DAB27B681B681A617B681B6D9A1C7B6892
:1031CC001A6577E07B689B6C9BB21B12DAB27B684A
:1031DC001B681A617B681B6D5A1C7B681A6569E059
:1031EC007B681B6D012B0BD17B689B6CDAB27B6807
:1031FC001B681A617B681B6D5A1C7B681A6559E049
:10320C007B681B6D022B52D1FB7B222B0DD17B6873
:10321C001B681A687B681B6842F480721A607B68B2
:10322C001B6D5A1C7B681A6544E07B685B8D9BB2F6
:10323C00002B15D0FB7B212B12D17B685B6A1A7893
:10324C007B681B681A617B685B6A5A1C7B685A62D4
:10325C007B685B8D9BB2013B9AB27B685A8529E0F7
:10326C007B685B8D9BB2002B24D1FB7B212B21D166
:10327C007B681B685A687B681B6822F4E0625A60A2
:10328C007B681B681A687B681B6842F400721A60C2
:10329C007B6800221A637B68202283F83D207B68C0
:1032AC00002283F83E207868FFF73AFE02E0786847
:1032BC00FFF730F900BF1037BD4680BD80B584B034
:1032CC0000AF78607B6893F83D30DBB2222B40F086
:1032DC00B9807B68DB6AFB607B685B8D9BB2BB60F3
:1032EC00BB68032B21D97B681B681A697B685B6AF6
:1032FC00D2B21A707B685B6A5A1C7B685A627B6814
:10330C005B8D9BB2013B9AB27B685A857B685B8D67
:10331C009BB2032B40F096807B681B685A687B68D5
:10332C001B6822F480625A608CE07B68DB6A022B9B
:10333C007FD0BB68012B02D0BB68002B79D1786899
:10334C0001F010FB0346002B4CD17B681B681A68FC
:10335C007B681B6822F480621A607B681B685A6861
:10336C007B681B6822F4E0625A607B681B681A69F0
:10337C007B685B6AD2B21A707B685B6A5A1C7B688A
:10338C005A627B685B8D9BB2013B9AB27B685A8513
:10339C007B68202283F83D207B6893F83E30DBB2BB
:1033AC00402B0AD17B68002283F83E207B680022E8
:1033BC001A637868FFF7BDFD44E07B68002283F850
:1033CC003E20FB68082B02D0FB68202B03D17B68C6
:1033DC0000221A6302E07B6812221A637868FFF7F6
:1033EC006EFD2FE07B681B685A687B681B6822F4B3
:1033FC00E0625A607B681B681A697B685B6AD2B2B0
:10340C001A707B685B6A5A1C7B685A627B685B8D9E
:10341C009BB2013B9AB27B685A857B68202283F869
:10342C003D207B68002283F83E207868FFF78AFDF8
:10343C0008E07B681B685A687B681B6822F4806212
:10344C005A60FFE700BF1037BD4680BD80B584B021
:10345C0000AF78607B68DB6AFB607B685B8D9BB23E
:10346C00042B1BD17B681B685A687B681B6822F491
:10347C0080625A607B681B681A697B685B6AD2B28F
:10348C001A707B685B6A5A1C7B685A627B685B8D1E
:10349C009BB2013B9AB27B685A85C4E07B685B8D1A
:1034AC009BB2032B29D17B681B685A687B681B680D
:1034BC0022F480625A60FB68042B0AD0FB68022B52
:1034CC0007D07B681B681A687B681B6822F48062D3
:1034DC001A607B681B681A697B685B6AD2B21A70C7
:1034EC007B685B6A5A1C7B685A627B685B8D9BB2FB
:1034FC00013B9AB27B685A8595E07B685B8D9BB2E9
:10350C00022B7DD1FB68012B02D0FB68102B08D15C
:10351C007B681B681A687B681B6822F480621A60DF
:10352C0016E0FB68042B02D0FB68022B08D17B68E9
:10353C001B681A687B681B6842F480621A6007E09B
:10354C007B681B681A687B681B6842F400721A60FF
:10355C007B681B681A697B685B6AD2B21A707B68DD
:10356C005B6A5A1C7B685A627B685B8D9BB2013B21
:10357C009AB27B685A857B681B681A697B685B6AA0
:10358C00D2B21A707B685B6A5A1C7B685A627B6881
:10359C005B8D9BB2013B9AB27B685A857B681B683A
:1035AC005A687B681B6822F440725A607B68202240
:1035BC0083F83D207B6893F83E30DBB2402B0AD178
:1035CC007B68002283F83E207B6800221A637868AF
:1035DC00FFF7AFFC27E07B68002283F83E20FB68F6
:1035EC00082B02D0FB68202B03D17B6800221A63C6
:1035FC0002E07B6812221A637868FFF760FC12E025
:10360C007B681B681A697B685B6AD2B21A707B682C
:10361C005B6A5A1C7B685A627B685B8D9BB2013B70
:10362C009AB27B685A8500BF1037BD4680BD80B406
:10363C0083B000AF78607B6893F83E30DBB2402BF0
:10364C0017D17B681B6D002B09D17B685B6CDBB2DF
:10365C001A467B681B6802F0FE021A6167E07B6801
:10366C005B6CDBB243F00103DAB27B681B681A6156
:10367C005DE07B681B69B3F5804F33D17B6893F8B1
:10368C003D30DBB2212B09D17B685B6CDBB21A4677
:10369C007B681B6802F0FE021A6108E07B685B6CB9
:1036AC00DBB243F00103DAB27B681B681A617B68FA
:1036BC005B6B002B04D07B685B6B9B6A002B08D187
:1036CC007B689B6B002B32D07B689B6B9B6A002BBF
:1036DC002DD07B681B685A687B681B6842F40062BB
:1036EC005A6024E07B681B6D002B0ED17B685B6CF1
:1036FC009BB2DB11DBB203F00603DBB263F00F030A
:10370C00DAB27B681B681A6111E07B681B6D012BB8
:10371C000DD17B685B6C9BB2DB11DBB203F0060353
:10372C00DBB263F00E03DAB27B681B681A6100BF70
:10373C000C37BD4680BC704780B483B000AF786056
:10374C007B685B6CDAB27B681B681A617B685B6BAD
:10375C00002B04D07B685B6B9B6A002B08D17B68C9
:10376C009B6B002B0CD07B689B6B9B6A002B07D050
:10377C007B681B685A687B681B6842F400625A605D
:10378C0000BF0C37BD4680BC704780B491B000AF11
:10379C0078607B6893F83E3087F83F307B68DB6A53
:1037AC00BB637B681B6B7B637B6893F83D30DBB240
:1037BC00222B40F074817B681B6D002B0FD197F886
:1037CC003F30402B0BD100233B637B681B685B694C
:1037DC003B637B681B689B693B633B6B6BE17B6862
:1037EC001B6D002B1DD17B681B69B3F5404F18D1A5
:1037FC000023FB627B681B685B69FB627B681B6850
:10380C009B69FB62FB6A7B681B681A687B681B6898
:10381C0042F480721A607B681B6D5A1C7B681A65B7
:10382C0049E17B685B8D9BB2002B13D10023BB62FB
:10383C007B681B685B69BB627B681B689B69BB62AE
:10384C00BB6A7B681B681A687B681B6842F4007251
:10385C001A6020E17B685B8D9BB2012B40F08A8063
:10386C00BB6B13F5803F37D17B681B681A687B688C
:10387C001B6822F480621A607B681B685B6803F427
:10388C000063B3F5006F13D17B681B681A687B6803
:10389C001B6822F480621A6000237B627B681B68C1
:1038AC005B697B627B681B689B697B627B6AF2E06D
:1038BC0000233B627B681B685B693B627B681B680F
:1038CC009B693B623B6A7B681B681A687B681B6858
:1038DC0042F400721A60DEE0BB6B082B2ED0BB6B7F
:1038EC00202B2BD07B6B122B02D1BB6B012B25D148
:1038FC00BB6B042B0ED0BB6B022B0BD0BB6B102BFA
:10390C0008D07B681B681A687B681B6822F480628D
:10391C001A6007E07B681B681A687B681B6842F4B6
:10392C0080621A600023FB617B681B685B69FB612A
:10393C007B681B689B69FB61FB69ACE07B681B685F
:10394C001A687B681B6822F480621A600023BB61D2
:10395C007B681B685B69BB617B681B689B69BB618F
:10396C00BB697B681B681A687B681B6842F4007231
:10397C001A6090E07B685B8D9BB2022B58D1BB6BBD
:10398C00042B21D0BB6B022B1ED0BB6B102B1BD07E
:10399C007B681B681A687B681B6842F400621A60BB
:1039AC0000237B617B681B685B697B617B681B68A0
:1039BC009B697B617B697B681B681A687B681B68E9
:1039CC0022F480621A6012E07B681B681A687B68BC
:1039DC001B6842F480621A6000233B617B681B68A1
:1039EC005B693B617B681B689B693B613B697B68DE
:1039FC001B685B6803F40063B3F5006F4BD1BB6BC2
:103A0C0013F5803F0BD0BB6B012B08D0BB6B082B85
:103A1C0005D0BB6B102B02D0BB6B202B3BD17B6832
:103A2C001B685A687B681B6842F480525A6032E00B
:103A3C007B681B681A687B681B6842F480621A609A
:103A4C007B681B685B6803F40063B3F5006F17D1E8
:103A5C00BB6B13F5803F0BD0BB6B012B08D0BB6B42
:103A6C00082B05D0BB6B102B02D0BB6B202B07D1C6
:103A7C007B681B685A687B681B6842F480525A60EA
:103A8C000023FB607B681B685B69FB607B681B68C1
:103A9C009B69FB60FB687B6800221A650BE00023C6
:103AAC00BB607B681B685B69BB607B681B689B6940
:103ABC00BB60BB68FFE700BF4437BD4680BC7047A6
:103ACC0080B584B000AF78607B6893F83D30FB73B1
:103ADC007B685B8D9BB2002B2BD07B685B6A1A7862
:103AEC007B681B681A617B685B6A5A1C7B685A622C
:103AFC007B685B8D9BB2013B9AB27B685A857B6875
:103B0C005B8D9BB2002B14D1FB7B292B11D17B68D5
:103B1C001B685A687B681B6822F480625A607B6859
:103B2C0021221A637B68282283F83D207868FFF7EE
:103B3C00CFF900BF1037BD4680BD80B483B000AF55
:103B4C0078607B685B8D9BB2002B11D07B685B6AC5
:103B5C001A787B681B681A617B685B6A5A1C7B68E5
:103B6C005A627B685B8D9BB2013B9AB27B685A852B
:103B7C0000BF0C37BD4680BC704780B584B000AF29
:103B8C0078607B6893F83D30FB737B685B8D9BB2F0
:103B9C00002B2CD07B681B681A697B685B6AD2B2DD
:103BAC001A707B685B6A5A1C7B685A627B685B8DF7
:103BBC009BB2013B9AB27B685A857B685B8D9BB24A
:103BCC00002B14D1FB7B2A2B11D17B681B685A6804
:103BDC007B681B6822F480625A607B6822221A631D
:103BEC007B68282283F83D207868FFF77AF900BFBC
:103BFC001037BD4680BD80B483B000AF78607B6861
:103C0C005B8D9BB2002B12D07B681B681A697B689A
:103C1C005B6AD2B21A707B685B6A5A1C7B685A6208
:103C2C007B685B8D9BB2013B9AB27B685A8500BF67
:103C3C000C37BD4680BC704780B584B000AF78604F
:103C4C0039600023FB737B6893F83D30DBB203F0E3
:103C5C002803282B27D17B681B685A687B681B6854
:103C6C0022F480625A603B689B0803F00103002B2E
:103C7C0001D10123FB733B68DB0903F00103002B2B
:103C8C0003D17B68DB68BB8102E07B689B69BB81ED
:103C9C007B68002283F83C20BA89FB7B1946786844
:103CAC00FFF728F90EE00023BB607B681B685B699B
:103CBC00BB607B681B689B69BB60BB687B68002230
:103CCC0083F83C2000BF1037BD4680BD80B584B062
:103CDC0000AF78607B6893F83D30FB737B681B68A2
:103CEC005A687B681B6822F4E0625A600023BB6050
:103CFC007B681B685B69BB607B681B681A687B68A8
:103D0C001B6842F001021A60BB687B681B681A686A
:103D1C007B681B6822F480621A607B681B685B6896
:103D2C0003F40063B3F5006F72D1FB7B222B02D03E
:103D3C00FB7B2A2B35D17B689B6B1B685B689AB22B
:103D4C007B685A857B685B8D9BB2002B05D07B68AA
:103D5C001B6C43F004027B681A647B681B685A680E
:103D6C007B681B6822F400625A607B689B6B184668
:103D7C00FEF7B6F80346012B49D07B689B6B694A6A
:103D8C005A637B689B6B1846FDF72CFF0346002B90
:103D9C003DD07B689B6B5B6B7A68926B1046984747
:103DAC0035E07B685B6B1B685B689AB27B685A85F5
:103DBC007B685B8D9BB2002B05D07B681B6C43F042
:103DCC0004027B681A647B681B685A687B681B68F2
:103DDC0022F400625A607B685B6B1846FEF780F831
:103DEC000346012B14D07B685B6B4E4A5A637B688D
:103DFC005B6B1846FDF7F6FE0346002B08D07B687C
:103E0C005B6B5B6B7A68526B1046984700E000BFA7
:103E1C007B685B8D9BB2002B3ED07B681B685B691B
:103E2C0003F00403042B12D17B681B681A697B68AE
:103E3C005B6AD2B21A707B685B6A5A1C7B685A62E6
:103E4C007B685B8D9BB2013B9AB27B685A857B6821
:103E5C001B685B6903F04003402B12D17B681B6825
:103E6C001A697B685B6AD2B21A707B685B6A5A1CEF
:103E7C007B685A627B685B8D9BB2013B9AB27B6814
:103E8C005A857B685B8D9BB2002B05D07B681B6CC5
:103E9C0043F004027B681A647B681B6C002B03D014
:103EAC00786800F043F839E0FB7B2A2B09D17B685A
:103EBC0000221A637B68282283F83D207868FFF77C
:103ECC0010F87B6893F83D30DBB2282B11D17B685E
:103EDC00154ADA627B6800221A637B68202283F819
:103EEC003D207B68002283F83E207868FFF70FF8AE
:103EFC0014E07B681B6B222B02D0FB7B222B0DD199
:103F0C007B6800221A637B68202283F83D207B6843
:103F1C00002283F83E207868FEF7E3FF00BF1037DD
:103F2C00BD4680BDCD4400080000FFFF80B584B0C5
:103F3C0000AF78607B6893F83D30FB737B6893F837
:103F4C003E30BB73BB7B102B02D0BB7B402B0AD10A
:103F5C00FB7B222B07D17B681B681A687B681B686C
:103F6C0022F400621A60FB7B03F02803282B07D194
:103F7C007B6800221A637B68282283F83D2015E0B9
:103F8C007B681B685B6803F40063B3F5006F0AD0B1
:103F9C00FB7B602B07D07B68202283F83D207B685D
:103FAC00002283F83E207B6800221A637B681B6822
:103FBC005B6803F40063B3F5006F62D17B681B6828
:103FCC005A687B681B6822F400625A607B685B6BE2
:103FDC0093F82130DBB2012B20D07B685B6B6A4AF3
:103FEC005A637B685B6B1846FDF7FCFD0346002BA0
:103FFC0000F089807B681B681A687B681B6822F05C
:10400C0001021A607B68202283F83D207B685B6B81
:10401C005B6B7A68526B1046984774E07B689B6BBD
:10402C00594A5A637B689B6B1846FDF7DBFD0346C8
:10403C00002B68D07B681B685B6903F04003402B46
:10404C000BD17B681B681A697B685B6AD2B21A70E9
:10405C007B685B6A5A1C7B685A627B681B681A68AF
:10406C007B681B6822F001021A607B68202283F8AF
:10407C003D207B689B6B5B6B7A68926B1046984714
:10408C0041E07B6893F83D30DBB2602B25D17B6837
:10409C00202283F83D207B6800221A647B681B6811
:1040AC005B6903F04003402B0BD17B681B681A69DA
:1040BC007B685B6AD2B21A707B685B6A5A1C7B683D
:1040CC005A627B681B681A687B681B6822F00102C5
:1040DC001A607868FEF73FFF15E07B681B685B6928
:1040EC0003F04003402B0BD17B681B681A697B687B
:1040FC005B6AD2B21A707B685B6A5A1C7B685A6224
:10410C007868FEF71FFF7B681B6CBB60BB6803F015
:10411C000103002B0ED1BB6803F00203002B09D165
:10412C00BB6803F00403002B04D1BB6803F0080345
:10413C00002B07D07B681B685A687B681B6822F4CD
:10414C00E0625A607B6893F83D30FB737B681B6CB4
:10415C0003F00403042B13D1FB7B282B10D17B68B9
:10416C000A4ADA627B6800221A637B68202283F891
:10417C003D207B68002283F83E207868FEF7C7FE5E
:10418C0000BF1037BD4680BDCD4400080000FFFFC6
:10419C0080B588B002AFF8607A603B600B467B81DB
:1041AC00FB68DB6A7B617B69082B06D07B69012B82
:1041BC0003D07B6913F5803F08D1FB681B681A6834
:1041CC00FB681B6842F480721A600BE0FB681B6B87
:1041DC00122B07D1FB681B681A68FB681B6842F43A
:1041EC0080721A603B6800937B6800224FF00111CB
:1041FC00F86800F00DFA0346002B0DD0FB681B6825
:10420C001B6803F48073B3F5807F03D1FB684FF414
:10421C0000721A64032335E0FB681B69B3F5804F09
:10422C0008D17B89DBB21A46FB681B6802F0FE02E0
:10423C001A611BE07B89DB11DBB203F00603DBB2F6
:10424C0063F00F03DAB2FB681B681A613B687A688B
:10425C000E49F86800F056FA0346002B01D00123F2
:10426C0010E07B89DAB2FB681B681A613B687A68DC
:10427C000749F86800F046FA0346002B01D00123E9
:10428C0000E0002318461837BD4680BD0800010029
:10429C000200010080B586B000AF78607B685B6A75
:1042AC007B617B6993F83D30FB747B6993F83E30FE
:1042BC00BB747B69DB6AFB607B691B685A687B6932
:1042CC001B6822F440725A607B695B6B002B03D035
:1042DC007B695B6B00229A627B699B6B002B03D022
:1042EC007B699B6B00229A62FB7C03F02103212BE0
:1042FC0007D0FB7C03F02203222B31D1BB7C202B7B
:10430C002ED17B691B685A687B691B6822F400629A
:10431C005A607B6900225A85FB7C292B0AD17B6968
:10432C0021221A637B69282283F83D207869FEF7E5
:10433C00CFFD0CE0FB7C2A2B09D17B6922221A636E
:10434C007B69282283F83D207869FEF7CAFD7B69DA
:10435C001B685A687B691B6842F440725A6074E0AF
:10436C007B6993F83E30DBB2002B6ED07B695B8DA2
:10437C009BB2012B07D17B691B681A687B691B6890
:10438C0022F480621A607B691B685A687B691B681F
:10439C0022F440725A60FB6813F5803F09D0FB6829
:1043AC00082B06D0FB68B3F12A4F02D0FB68202BF8
:1043BC0007D17B691B681A687B691B6842F4007221
:1043CC001A607B691B685A687B691B6822F48052EF
:1043DC005A607B691B685A687B691B6822F400620F
:1043EC005A607B6900225A857B691B6C002B03D0B9
:1043FC007869FEF7A7FD28E07B69202283F83D2031
:10440C007B6993F83E30DBB2402B0AD17B690022EA
:10441C0083F83E207B6900221A637869FEF789FDD8
:10442C0013E07B69002283F83E20FB68082B02D046
:10443C00FB68202B03D17B6900221A6302E07B69A5
:10444C0012221A637869FEF73AFD00BF1837BD4691
:10445C0080BD80B584B000AF78607B685B6AFB6020
:10446C00FB685B6B002B03D0FB685B6B00229A62D2
:10447C00FB689B6B002B03D0FB689B6B00229A6242
:10448C00FB681B681A68FB681B6822F480621A6060
:10449C00FB6800225A85FB68202283F83D20FB68CC
:1044AC00002283F83E20FB681B6C43F01002FB6873
:1044BC001A64F868FEF746FD00BF1037BD4680BD94
:1044CC0080B586B000AF78600023FB607B685B6AC8
:1044DC007B617B6993F83D30FB744B4B1B68DB08AD
:1044EC004A4AA2FB03231A0A13469B001344DA0020
:1044FC00D31AFB60FB68002B06D17B691B6C43F065
:10450C0020027B691A640AE0FB68013BFB607B6953
:10451C001B681B6803F40073B3F5007FEAD07B695A
:10452C005B6B002B03D07B695B6B00229A627B690F
:10453C009B6B002B03D07B699B6B00229A627B697F
:10454C001B681A687B691B6822F480621A607B699D
:10455C0000225A857B695B6B002B03D07B695B6BFC
:10456C0000225A637B699B6B002B03D07B699B6B8E
:10457C0000225A637B691B681A687B691B6822F0EE
:10458C0001021A607B6993F83D30DBB2602B0ED1CF
:10459C007B69202283F83D207B69002283F83E2032
:1045AC007B6900221A647869FEF7D5FC27E0FB7C56
:1045BC0003F02803282B17D17B691B681A687B69C9
:1045CC001B6842F001021A607B691B681A687B69E0
:1045DC001B6842F480621A607B6900221A637B6953
:1045EC00282283F83D2007E07B69202283F83D20B8
:1045FC007B69002283F83E207869FEF7A3FC00BF9C
:10460C001837BD4680BD00BF0C00002089B5F814DA
:10461C0080B584B000AFF860B9603B601346FB71A5
:10462C0048E03B68B3F1FF3F44D0FDF7E5F80246A4
:10463C00BB69D31A3A689A4202D33B68002B39D132
:10464C00BB681B0CDBB2012B0DD1FB681B685B69D3
:10465C00DA43BB6813409BB2002B0CBF0123002331
:10466C00DBB21A460CE0FB681B689B69DA43BB683B
:10467C0013409BB2002B0CBF01230023DBB21A4664
:10468C00FB799A4216D1FB6800221A63FB68202240
:10469C0083F83D20FB68002283F83E20FB681B6CEE
:1046AC0043F02002FB681A64FB68002283F83C206C
:1046BC00012323E0BB681B0CDBB2012B0DD1FB6883
:1046CC001B685B69DA43BB6813409BB2002B0CBFC1
:1046DC0001230023DBB21A460CE0FB681B689B69C4
:1046EC00DA43BB6813409BB2002B0CBF01230023A1
:1046FC00DBB21A46FB799A4293D000231846103746
:10470C00BD4680BD80B584B000AFF860B9607A60FA
:10471C003B6071E0FB681B685B6903F48063B3F575
:10472C00806F23D1FB681B681A68FB681B6842F416
:10473C0000721A60FB681B686FF480625A61FB6838
:10474C0000221A63FB68202283F83D20FB680022BC
:10475C0083F83E20FB681B6C43F00402FB681A6470
:10476C00FB68002283F83C20012367E07B68B3F1EF
:10477C00FF3F41D0FDF740F802463B68D31A7A68F8
:10478C009A4202D37B68002B36D1BB681B0CDBB280
:10479C00012B0CD1FB681B685B69DA43BB681340C7
:1047AC009BB2002B14BF01230023DBB20BE0FB6890
:1047BC001B689B69DA43BB6813409BB2002B14BF88
:1047CC0001230023DBB2002B16D0FB6800221A63F6
:1047DC00FB68202283F83D20FB68002283F83E20F2
:1047EC00FB681B6C43F02002FB681A64FB68002218
:1047FC0083F83C20012321E0BB681B0CDBB2012BAE
:10480C000CD1FB681B685B69DA43BB6813409BB235
:10481C00002B14BF01230023DBB20BE0FB681B68E9
:10482C009B69DA43BB6813409BB2002B14BF012376
:10483C000023DBB2002B7FF46DAF0023184610373A
:10484C00BD4680BD80B584B000AFF860B9607A60B9
:10485C0034E0F86800F0B8F80346002B01D00123CF
:10486C0034E0BB68B3F1FF3F28D0FCF7C5FF02462C
:10487C007B68D31ABA689A4202D3BB68002B1DD14D
:10488C00FB681B685B6903F08003802B16D0FB6808
:10489C0000221A63FB68202283F83D20FB6800226B
:1048AC0083F83E20FB681B6C43F02002FB681A6403
:1048BC00FB68002283F83C20012307E0FB681B689F
:1048CC005B6903F08003802BC3D10023184610379B
:1048DC00BD4680BD80B584B000AFF860B9607A6029
:1048EC0034E0F86800F070F80346002B01D0012387
:1048FC0034E0BB68B3F1FF3F28D0FCF77DFF0246E4
:10490C007B68D31ABA689A4202D3BB68002B1DD1BC
:10491C00FB681B685B6903F00403042B16D0FB686F
:10492C0000221A63FB68202283F83D20FB680022DA
:10493C0083F83E20FB681B6C43F02002FB681A6472
:10494C00FB68002283F83C20012307E0FB681B680E
:10495C005B6903F00403042BC3D100231846103702
:10496C00BD4680BD80B485B000AF78600023FB608D
:10497C00134B1B68DB08134AA2FB03231A0A1346CA
:10498C009B001344FB60FB68013BFB60FB68002B46
:10499C0007D17B681B6C43F020027B681A640123EF
:1049AC0008E07B681B681B6803F40073B3F5007F99
:1049BC00E9D0002318461437BD4680BC704700BFB1
:1049CC000C00002089B5F81480B483B000AF786077
:1049DC007B681B685B6903F48063B3F5806F1BD144
:1049EC007B681B686FF480625A617B6800221A63D3
:1049FC007B68202283F83D207B68002283F83E20D0
:104A0C007B681B6C43F004027B681A647B68002291
:104A1C0083F83C20012300E0002318460C37BD46E8
:104A2C0080BC704780B483B000AF78607B68DB6A71
:104A3C00B3F52A0F03D17B680122DA6207E07B68A9
:104A4C00DB6AB3F12A4F02D17B680822DA6200BF1D
:104A5C000C37BD4680BC704780B584B000AF786021
:104A6C007B68002B01D10123E8E07B6893F891323D
:104A7C00DBB2002B06D17B68002283F89022786889
:104A8C0007F04EF97B68032283F891227B680022A1
:104A9C005A717B681B68184603F046F87B681868E7
:104AAC007B6804330ECB03F01CF80346002B05D0B7
:104ABC007B68022283F891220123BFE07B681B688C
:104ACC000021184603F04AF80346002B05D07B68FA
:104ADC00022283F891220123B0E00023FB733EE015
:104AEC00FA7B796813469B001344DB000B441133AB
:104AFC0001221A70FA7B796813469B001344DB0081
:104B0C000B441033FA7B1A70FA7B796813469B00BE
:104B1C001344DB000B44133300221A70FA7B7968C0
:104B2C0013469B001344DB000B44203300221A6015
:104B3C00FA7B796813469B001344DB000B44243347
:104B4C0000221A60FB7B79685A1C13469B001344A5
:104B5C00DB000B4400221A60FB7B0133FB737B6888
:104B6C001B79FA7B9A42BBD30023FB7344E0FA7B9C
:104B7C00796813469B001344DB000B4403F251137A
:104B8C0000221A70FA7B796813469B001344DB00F1
:104B9C000B4403F5A873FA7B1A70FA7B79681346F9
:104BAC009B001344DB000B4403F2531300221A70D6
:104BBC00FA7B796813469B001344DB000B4403F526
:104BCC00B07300221A60FA7B796813469B00134479
:104BDC00DB000B4403F5B27300221A60FA7B796890
:104BEC0013469B001344DB000B4403F5B473002203
:104BFC001A60FB7B0133FB737B681B79FA7B9A424F
:104C0C00B5D37B6818687B6804330ECB02F0B2FF17
:104C1C000346002B05D07B68022283F891220123E6
:104C2C000CE07B6800225A737B68012283F8912286
:104C3C007B681B68184605F032FA002318461037BB
:104C4C00BD4680BD80B582B000AF78607B6893F8BC
:104C5C009032012B01D1022316E07B68012283F8EC
:104C6C0090227B681B68184602F048FF0121786887
:104C7C0007F0C9FA7B681B68184605F006FA7B68D2
:104C8C00002283F89022002318460837BD4680BDC9
:104C9C0080B588B000AF78607B681B68184605F05B
:104CAC0008FAB861BB6903F40043002B03D07868A1
:104CBC0000F01AFB19E1BB6903F48063002B13D0DD
:104CCC007B681B68B3F844309AB27B681B6822F48B
:104CDC00806292B2A3F84420786807F09CF8002117
:104CEC00786800F005F900E1BB6903F48043002B00
:104CFC000CD07B681B68B3F844309AB27B681B6895
:104D0C0022F4804292B2A3F84420EEE0BB6903F493
:104D1C000053002B0CD07B681B68B3F844309AB25C
:104D2C007B681B6822F4005292B2A3F84420DCE0AA
:104D3C00BB6903F48053002B27D07B681B68B3F846
:104D4C0040309AB27B681B6822F0040292B2A3F83E
:104D5C0040207B681B68B3F840309AB27B681B68B4
:104D6C0022F0080292B2A3F84020786807F08CF881
:104D7C007B681B68B3F844309AB27B681B6822F4DA
:104D8C00805292B2A3F84420AFE0BB6903F40063F5
:104D9C00002B00F083800023FB7710E07B681B68FE
:104DAC001A46FB7F9B001A44FB7F128892B25B0071
:104DBC0020333B4423F8182CFB7F0133FB77FB7F1C
:104DCC00072BEBD97B681B68B3F840309AB27B6831
:104DDC001B6842F0010292B2A3F840207B681B686A
:104DEC00B3F840309AB27B681B6822F0010292B291
:104DFC00A3F8402000BF7B681B68B3F844309BB21B
:104E0C0003F48063002BF6D07B681B68B3F8443046
:104E1C009AB27B681B6822F4806292B2A3F8442099
:104E2C000023FB770FE0FB7F7A6812681146FA7F4C
:104E3C0092000A445B0020333B4433F8183C138047
:104E4C00FB7F0133FB77FB7F072BECD97B681B685F
:104E5C00B3F840309AB27B681B6842F0080292B2F9
:104E6C00A3F840207B681B68B3F844309AB27B6887
:104E7C001B6822F4006292B2A3F844207B681B6882
:104E8C00B3F840309AB27B681B6842F0040292B2CD
:104E9C00A3F84020786806F0DDFF26E0BB6903F438
:104EAC000073002B0FD07B681B68B3F844309AB2A8
:104EBC007B681B6822F4007292B2A3F844207868D5
:104ECC0006F09BFF11E0BB6903F48073002B0CD040
:104EDC007B681B68B3F844309AB27B681B6822F479
:104EEC00807292B2A3F8442000BF2037BD4680BD2B
:104EFC0080B582B000AF78600B46FB707B6893F88E
:104F0C009032012B01D1022312E07B68012283F83D
:104F1C0090227B68FA785A737B681B68FA78114682
:104F2C00184605F09FF87B68002283F89022002336
:104F3C0018460837BD4680BD80B584B000AF786098
:104F4C00084611461A460346FB700B463B80134637
:104F5C00BB700023FB7297F90330002B0EDAFB7841
:104F6C0003F0070213469B001344DB0010337A68EE
:104F7C001344FB60FB6801225A700EE0FB7803F0CF
:104F8C00070213469B001344DB0003F5A8737A68F1
:104F9C001344FB60FB6800225A70FB7803F0070394
:104FAC00DAB2FB681A703A88FB681A61FB68BA7847
:104FBC00DA70BB78022B02D1FB6800221A717B6875
:104FCC0093F89032012B01D102230EE07B68012271
:104FDC0083F890227B681B68F968184602F0E8FD9C
:104FEC007B68002283F89022FB7A18461037BD4666
:104FFC0080BD80B584B000AF78600B46FB7097F92C
:10500C000330002B0EDAFB7803F0070213469B00EB
:10501C001344DB0010337A681344FB60FB680122F5
:10502C005A700EE0FB7803F0070213469B00134402
:10503C00DB0003F5A8737A681344FB60FB6800225D
:10504C005A70FB7803F00703DAB2FB681A707B68BE
:10505C0093F89032012B01D102230EE07B680122E0
:10506C0083F890227B681B68F968184603F060F996
:10507C007B68002283F89022002318461037BD4627
:10508C0080BD80B586B000AFF8607A603B600B469F
:10509C00FB72FB7A03F0070213469B001344DB0000
:1050AC0003F5A873FA6813447B617B697A685A61CB
:1050BC007B693A689A617B690022DA617B6900221C
:1050CC005A70FB7A03F00703DAB27B691A70FB683B
:1050DC001B687969184603F017FB0023184618372C
:1050EC00BD4680BD80B483B000AF78600B46FB70CA
:1050FC00FB7803F00702796813469B001344DB002E
:10510C000B4403F5B6731B6818460C37BD4680BCC0
:10511C00704780B586B000AFF8607A603B600B4694
:10512C00FB72FB7A03F0070213469B001344DB006F
:10513C001033FA6813447B617B697A685A617B6926
:10514C003A689A617B69012283F824207B693A686A
:10515C001A627B690022DA617B6901225A70FB7A40
:10516C0003F00703DAB27B691A70FB681B68796974
:10517C00184603F0C9FA002318461837BD4680BDFF
:10518C0080B584B000AF78600B46FB70FB7803F001
:10519C0007037A681279934201D901234CE097F9FD
:1051AC000330002B0EDAFB7803F0070213469B004A
:1051BC001344DB0010337A681344FB60FB68012254
:1051CC005A700CE0FA7813469B001344DB0003F58D
:1051DC00A8737A681344FB60FB6800225A70FB6862
:1051EC0001229A70FB7803F00703DAB2FB681A709D
:1051FC007B6893F89032012B01D102231CE07B6871
:10520C00012283F890227B681B68F968184604F029
:10521C002CFEFB7803F00703002B08D17B681A687F
:10522C007B6803F526731946104604F051FF7B6822
:10523C00002283F89022002318461037BD4680BD0B
:10524C0080B584B000AF78600B46FB70FB7803F040
:10525C000F037A681279934201D9012340E097F940
:10526C000330002B0EDAFB7803F0070213469B0089
:10527C001344DB0010337A681344FB60FB68012293
:10528C005A700EE0FB7803F0070213469B001344A0
:10529C00DB0003F5A8737A681344FB60FB680022FB
:1052AC005A70FB6800229A70FB7803F00703DAB29D
:1052BC00FB681A707B6893F89032012B01D10223A2
:1052CC000EE07B68012283F890227B681B68F968EA
:1052DC00184604F01AFE7B68002283F89022002303
:1052EC0018461037BD4680BD80B596B000AF7860CB
:1052FC00BBE37B681B68B3F84430A7F84E30B7F8B3
:10530C004E30DBB203F00F0387F84D3097F84D3079
:10531C00002B40F07581B7F84E3003F01003002BD2
:10532C004ED17B681B681B889BB223F4E14323F0AE
:10533C007003FB817B681A68FB896FEA43436FEA51
:10534C0053439BB213807B6810337B657B681B686F
:10535C00B3F850309BB21A467B6D1B78DB001344BC
:10536C0002335B007A681268134403F580631B8870
:10537C00C3F309027B6DDA617B6D5A697B6DDB6966
:10538C001A447B6D5A610021786806F01CFD7B681D
:10539C005B7BDBB2002B00F068837B6D9B69002B81
:1053AC0040F063837B685B7BDBB263F07F03DAB234
:1053BC007B681B68A3F84C207B6800225A7354E36B
:1053CC007B6803F5A8737B657B681B681B88A7F853
:1053DC004A30B7F84A3003F40063002B34D07B68B2
:1053EC001B68B3F850309BB21A467B6D1B78DB0000
:1053FC00134406335B007A681268134403F5806328
:10540C001B88C3F309027B6DDA617B6818687B68C3
:10541C0003F526717B6DDA887B6DDB699BB204F03A
:10542C00A8FE7B681B681B889AB240F68F731340EA
:10543C003B827B681B683A8A42F0800292B21A80E7
:10544C00786806F093FC10E3B7F94A30002B80F231
:10545C000C837B681B681B889AB240F68F731340D1
:10546C00FB837B681B68FA8B42F0800292B21A8035
:10547C007B681B68B3F850309BB21A467B6D1B7867
:10548C00DB00134406335B007A681268134403F59F
:10549C0080631B88C3F309027B6DDA617B6DDB696A
:1054AC00002B19D07B6D5B69002B15D07B681868BD
:1054BC007B6D59697B6DDA887B6DDB699BB204F07F
:1054CC0058FE7B6D5A697B6DDB691A447B6D5A61A2
:1054DC000021786806F05CFC7B681B681B88A7F8C9
:1054EC004A30B7F84A3003F40063002B40F0BD8219
:1054FC00B7F84A3003F44053B3F5405F00F0B5827F
:10550C007B681B68BB617B681B68B3F850309BB22F
:10551C001A46BB691344BB61BB6903F20C437B6144
:10552C007B691B889BB2C3F309039AB27B691A800F
:10553C007B6D1B693E2B1DD97B6D1B695B097B64E5
:10554C007B6D1B6903F01F03002B02D17B6C013BAD
:10555C007B647B691B889AB27B6C9BB29B029BB26F
:10556C0013439BB26FEA43436FEA53439AB27B698E
:10557C001A8026E07B6D1B69002B0AD17B691B8886
:10558C009BB26FEA43436FEA53439AB27B691A802A
:10559C0017E07B6D1B695B087B647B6D1B6903F0FB
:1055AC000103002B02D07B6C01337B647B691B886D
:1055BC009AB27B6C9BB29B029BB213439AB27B69EF
:1055CC001A807B681B681B889BB223F4804323F0F2
:1055DC0070037B827B8A83F480537B827B8A83F487
:1055EC0000537B827B681A687B8A43F07F4343F4C9
:1055FC007F0343F4004343F080039BB2138034E2F7
:10560C007B681B681A4697F84D309B0013441B8827
:10561C00A7F84A30B7F94A30002B80F2FC807B683F
:10562C001B681A4697F84D309B0013441B889AB29E
:10563C0040F68F731340A7F848307B681B681A46F6
:10564C0097F84D309B001344B7F8482042F0800285
:10565C0092B21A8097F84D2013469B001344DB003E
:10566C0003F5A8737A6813447B657B6D1B7B002B59
:10567C0025D17B681B68B3F850309BB21A467B6D02
:10568C001B78DB00134406335B007A681268134402
:10569C0003F580631B88C3F30903A7F85030B7F8F0
:1056AC005030002B00F092807B6818687B6D596934
:1056BC007B6DDA88B7F8503004F05BFD86E07B6DCB
:1056CC00DB78022B0AD1B7F84A301A46796D786824
:1056DC0000F0D9F90346A7F8503077E07B681B68D7
:1056EC001A467B6D1B789B0013441B889BB223F4DA
:1056FC00E04323F07003A7F852307B681B681A460E
:10570C007B6D1B789B001A44B7F8523043F07F43F3
:10571C0043F47F0343F4004343F0C0039BB2138074
:10572C007B681B681A467B6D1B789B0013441B8897
:10573C009BB203F48043002B24D07B681B68B3F826
:10574C0050309BB21A467B6D1B78DB00134402333E
:10575C005B007A681268134403F580631B88C3F3FB
:10576C000903A7F85030B7F85030002B2ED07B68C7
:10577C0018687B6D59697B6D1A89B7F8503004F045
:10578C00F8FC23E07B681B68B3F850309BB21A46D8
:10579C007B6D1B78DB00134406335B007A68126860
:1057AC00134403F580631B88C3F30903A7F8503037
:1057BC00B7F85030002B09D07B6818687B6D59699D
:1057CC007B6D5A89B7F8503004F0D3FC7B6DDA69E5
:1057DC00B7F850301A447B6DDA617B6D5A69B7F8B3
:1057EC0050301A447B6D5A617B6D9B69002B05D040
:1057FC00B7F850207B6D1B699A4206D27B6D1B78E3
:10580C001946786806F0C4FA05E07B681B68796D68
:10581C00184602F079FFB7F84A3003F08003002BEA
:10582C0000F0238197F84D2013469B001344DB00B6
:10583C0010337A6813447B657B681B681A4697F8AB
:10584C004D309B0013441B889BB223F4E14323F09F
:10585C007003A7F842307B681B681A4697F84D30E6
:10586C009B001A44B7F842306FEA43436FEA534344
:10587C009BB213807B6DDB78012B40F0A2807B6D9B
:10588C0000229A617B6D1B7B002B00F09380B7F894
:10589C004A3003F04003002B46D07B6D5B78002B25
:1058AC0026D17B681B687B627B681B68B3F8503021
:1058BC009BB21A467B6A13447B627B6D1B781A0180
:1058CC007B6A134403F204433B623B6A1B889BB222
:1058DC00C3F309039AB23B6A1A803B6A1B889BB2DA
:1058EC006FEA43436FEA53439AB23B6A1A8061E012
:1058FC007B6D5B78012B5DD17B681B68FB627B68E1
:10590C001B68B3F850309BB21A46FB6A1344FB6217
:10591C007B6D1B781A01FB6A134403F20443BB62D0
:10592C00BB6A00221A8045E07B681B68FB637B6DB9
:10593C005B78002B26D17B681B687B637B681B68BC
:10594C00B3F850309BB21A467B6B13447B637B6D70
:10595C001B781A017B6B134403F20C433B633B6BC8
:10596C001B889BB2C3F309039AB23B6B1A803B6B47
:10597C001B889BB26FEA43436FEA53439AB23B6B6B
:10598C001A8017E07B6D5B78012B13D17B681B6849
:10599C00B3F850309BB21A46FB6B1344FB637B6D20
:1059AC001B781A01FB6B134403F20C43BB63BB6BF8
:1059BC0000221A807B6D1B781946786806F003FA72
:1059CC0053E0B7F84A3003F48073002B46D17B6860
:1059DC001B68B3F850309BB21A467B6D1B78DB000A
:1059EC00134402335B007A681268134403F5806336
:1059FC001B88C3F30903A7F840307B6D9A69B7F88D
:105A0C0040309A4207D97B6D9A69B7F84030D21A68
:105A1C007B6D9A6102E07B6D00229A617B6D9B69C4
:105A2C00002B06D17B6D1B781946786806F0CBF9F4
:105A3C001BE07B6D5A69B7F840301A447B6D5A6194
:105A4C007B6DDA69B7F840301A447B6DDA617B689C
:105A5C001B68796D184602F057FE06E0B7F84A301D
:105A6C001A46796D786800F01BF97B681B68B3F8EF
:105A7C0044309BB21BB2002BFFF63BAC0023184604
:105A8C005837BD4680BD80B588B000AFF860B960AE
:105A9C001346FB80FB8803F48043002B7ED0FB680D
:105AAC001B68B3F850309BB21A46BB681B78DB00FE
:105ABC00134402335B00FA681268134403F58063E5
:105ACC001B88C3F309037B83BB689A697B8B9A425F
