:020000040800F2
:1000000000500020991B0008191A0008211A000846
:10001000291A0008311A0008391A000800000000E7
:10002000000000000000000000000000411A00086D
:100030004D1A000800000000591A0008651A00084F
:10004000E11B0008E11B0008E11B0008E11B0008A0
:10005000E11B0008E11B0008E11B0008E11B000890
:10006000E11B0008E11B0008E11B0008711A0008F1
:10007000E11B0008E11B0008E11B0008E11B000870
:10008000851A0008E11B0008E11B0008E11B0008BD
:10009000991A0008E11B0008E11B0008E11B000899
:1000A000E11B0008E11B0008E11B0008E11B000840
:1000B000E11B0008E11B0008E11B0008AD1A000865
:1000C000E11B0008E11B0008E11B0008E11B000820
:1000D000E11B0008E11B0008E11B0008E11B000810
:1000E000E11B0008E11B0008E11B00080000000004
:1000F0000000000000000000000000000000000000
:0C01000000000000000000005FF808F1A3
:10010C0010B5054C237833B9044B13B10448AFF345
:10011C0000800123237010BDD801002000000000D6
:10012C003CD9000808B5034B1BB103490348AFF396
:10013C00008008BD00000000DC0100203CD9000854
:10014C0080B483B000AF7860034A7B68136000BF53
:10015C000C37BD4680BC7047F401002080B485B0DC
:10016C0000AFF860B9607A603B60FB68BA681A60EF
:10017C00FB6800221A71FB6800225A71FB68FF228F
:10018C009A71FB680022DA717B683A681A607B68A6
:10019C0000221A717B6800225A717B6800229A71C6
:1001AC007B68FF22DA717B6800221A727B6800225E
:1001BC005A727B6800229A72054B00221A70054B0A
:1001CC00FF221A7000BF1437BD4680BC704700BFB9
:1001DC00F9010020F801002080B582B000AF7860F2
:1001EC0039603B681A793B685B799A4203D079682D
:1001FC00386800F041F87B685A797B681B799A4221
:10020C0016D00D4B1B687A681268796849790A44D4
:10021C00104698477B685B790133DAB27B685A7178
:10022C007B685A797B689B791340DAB27B685A7188
:10023C0000BF0837BD4680BDF401002080B483B0F8
:10024C0000AF78600B46FB707B681A687B681B7983
:10025C00591CC8B2796808711344FA781A707B6813
:10026C001A797B68DB791340DAB27B681A7100BFAC
:10027C000C37BD4680BC704780B584B000AF786049
:10028C0039607B681B79FB73DFE07B689B79062BFD
:10029C0000F2C88001A252F823F000BFC50200088A
:1002AC00DF0200080B030008370300086303000893
:1002BC007B030008D10300087B681B687A685279BD
:1002CC0013441B78552B40F0B1807B6801229A7146
:1002DC00ACE07B681B687A68527913441B784E2B10
:1002EC0003D17B6802229A71A1E07B6800229A718B
:1002FC007B685B79013BDAB27B685A7197E07B686B
:10030C001B687A68527913441B78452B03D17B68A0
:10031C0003229A718BE07B6800229A717B685B796F
:10032C00013BDAB27B685A7181E07B681B687A68A2
:10033C00527913441B78522B03D17B6804229A7197
:10034C0075E07B6800229A717B685B79013BDAB2BD
:10035C007B685A716BE07B6805229A717B681B681D
:10036C007A68527913441A787B681A725FE07B685A
:10037C001B687A68527913441B783A2B18D17B6826
:10038C001B7A83F03603DAB27B689A727B6806229A
:10039C009A717B685B790133DAB27B685A727B683D
:1003AC005A7A7B68DB791340DAB27B685A723EE08A
:1003BC007B6800229A717B685B79013BDAB27B68BF
:1003CC005A7134E07B681B7A013BDAB27B681A7293
:1003DC007B681B7A002B0CD07B689A7A7B681B6835
:1003EC00796849790B441B785340DAB27B689A726E
:1003FC001DE07B681B687A68527913441A787B6815
:10040C009B7A9A420AD17B681B687A68527A1344A9
:10041C001B787A683968184600F022F87B6800224D
:10042C009A7104E07B6800229A7100E000BF7B683F
:10043C005B790133DAB27B685A717B685A797B68D5
:10044C00DB791340DAB27B685A717B685B79FA7B93
:10045C009A427FF41AAF00BF00BF1037BD4680BD73
:10046C0080B584B000AF0346B9607A60FB73FB7B48
:10047C00F12B10D0F12B39DCF02B06D0F02B35DC26
:10048C00012B0ED0022B2BD030E0FB7BB968184629
:10049C0000F03AF830E0FB7BB968184600F034F80D
:1004AC002AE07B681A687B685B7A013313441B78FB
:1004BC005AB2134B1A707B681A687B685B7A0233EA
:1004CC0013441B785AB20E4B5A700E4B1B680C49D6
:1004DC0001209847FB7BB968184600F015F80BE033
:1004EC00FB7BB968184600F00FF805E0FB7BB96898
:1004FC00184600F009F800BF00BF1037BD4680BD9C
:10050C00FC0100200002002080B582B000AF034641
:10051C003960FB71FB79F12B1AD0F12B50DCF02BED
:10052C0006D0F02B4CDC012B2AD0022B38D047E024
:10053C000222F021386800F061F80D21386800F0D3
:10054C000CF93B68DB791946386800F006F94DE088
:10055C001222F121386800F051F82649386800F071
:10056C0023F92549386800F01FF90A21386800F092
:10057C00F4F83B68DB791946386800F0EEF835E0A2
:10058C0002220121386800F039F80121386800F0A6
:10059C00E4F83B68DB791946386800F0DEF825E0B2
:1005AC0002220221386800F029F80221386800F094
:1005BC00D4F83B68DB791946386800F0CEF815E0C2
:1005CC003B681B683A68127913441B78022219465F
:1005DC00386800F013F8FF21386800F0BEF83B686B
:1005EC00DB791946386800F0B8F800BF00BF08374F
:1005FC00BD4680BD54D90008C8D9000880B483B06A
:10060C0000AF78600B46FB701346BB707B68002212
:10061C00DA717B681A687B681B79591CC8B27968D7
:10062C000871134455221A707B681A797B689B7980
:10063C001340DAB27B681A717B681A687B681B7985
:10064C00591CC8B27968087113444E221A707B6821
:10065C001A797B689B791340DAB27B681A717B68D4
:10066C001A687B681B79591CC8B2796808711344E5
:10067C0045221A707B681A797B689B791340DAB231
:10068C007B681A717B681A687B681B79591CC8B225
:10069C0079680871134452221A707B681A797B6846
:1006AC009B791340DAB27B681A717B681A687B6895
:1006BC001B79591CC8B2796808711344BA78013295
:1006CC00D2B21A707B681A797B689B791340DAB2C4
:1006DC007B681A717B681A687B681B79591CC8B2D5
:1006EC007968087113443A221A707B681A797B680E
:1006FC009B791340DAB27B681A717B681A687B6845
:10070C001B79591CC8B2796808711344FA781A70AD
:10071C007B681A797B689B791340DAB27B681A7113
:10072C007B68DB795AB2BB780133DBB25BB25340E6
:10073C005BB2DAB27B68DA717B68DA79FB785340AA
:10074C00DBB283F03603DAB27B68DA717B68DB7973
:10075C0018460C37BD4680BC704780B483B000AFE0
:10076C0078600B46FB707B681A687B681B79591C98
:10077C00C8B2796808711344FA781A707B681A79D0
:10078C007B689B791340DAB27B681A717B68DA79E3
:10079C00FB785340DAB27B68DA717B68DB791846F8
:1007AC000C37BD4680BC704790B484B000AF786005
:1007BC0039600023FB8122E0FB893A681A447B688C
:1007CC0019687B681B79581CC4B2786804710B4497
:1007DC0012781A707B681A797B689B791340DAB2AD
:1007EC007B681A71FB895A1CFA811A463B681344C0
:1007FC001A787B68DB795340DAB27B68DA71FB8953
:10080C003A6813441B78002BD6D17B68DB791846E9
:10081C001037BD4690BC704780B483B000AF786091
:10082C00034A7B68136000BF0C37BD4680BC704721
:10083C00000200202DE9F04387B002AF3A601A465F
:10084C000346FB710B46BB711346BB806B461E46C1
:10085C00BB88591C4B1EFB600A46002390469946E8
:10086C004FF000024FF000034FEAC90343EA5873FC
:10087C004FEAC8020A46002314461D464FF00002F8
:10088C004FF00003EB0043EA5473E2000B460733CE
:10089C00DB08DB00ADEB030D02AB0033BB60BB68C8
:1008AC00BA791A70BB680133BA88396818460CF0EB
:1008BC00E5FBFB7999B2BB799AB2BB8801933B6893
:1008CC0000930123044802F01DFDB54600BF143708
:1008DC00BD46BDE8F08300BF7802002080B586B02D
:1008EC0002AF0346FB710B46BB7113467B71BB79A0
:1008FC003B737B797B73FB7999B207F10C024FF058
:10090C00FF3300930223074802F0FEFB0346002B43
:10091C0001D1002301E04FF0FF3318461037BD46DC
:10092C0080BD00BF7802002080B483B000AF0346C6
:10093C003960FB71FB79012B0AD13B6893F90020DC
:10094C00064B1A703B6893F90120054B1A7000E0B6
:10095C0000BF00BF0C37BD4680BC7047B4050020FB
:10096C00B505002080B582B000AF78600B46FB70F7
:10097C0097F90330642B01DD6423FB7097F9033086
:10098C0013F1640F01DA9C23FB707B68002B03D0FE
:10099C007B68012B0CD016E000224FF400710C4840
:1009AC0002F042FA0B4B1B6897F903205A630AE0DA
:1009BC0000220121064802F037FA074B1B6897F911
:1009CC0003209A6300BF00BF0837BD4680BD00BF3F
:1009DC0000080140100300205803002080B500AF30
:1009EC0000F082FB0346002B01D100BFFDE700BFE6
:1009FC0080BD80B582B000AF786000BF01217868FF
:100A0C000BF0FAFE0346012BF8D000BF00BF0837ED
:100A1C00BD4680BD80B588B000AF01F0DDF8454A19
:100A2C0007F1180392E8030083E8030007F11803A9
:100A3C00184600F03DFB404B404A41494148FFF706
:100A4C008DFB4148FFF77CFB40480BF0FBFE00F0B0
:100A5C0095F800F0EDFA00F0C5FA0BF0F3FD00F09C
:100A6C007FF900F0ABF900F049FA00F0E5F83848EE
:100A7C00FFF7D2FE0021374807F056F9042136481B
:100A8C0007F052F9354B00221A70354B00221A70C0
:100A9C0000210020FFF766FF50210120FFF762FFC5
:100AAC0008223049304801F0D1F9FFF797FF00F0E8
:100ABC00BAFD22492348FFF78FFB0021002000F0EC
:100ACC00F9FC264B93F900301A463B1D2749184672
:100ADC000CF07EFA01222649264800F07FFD002109
:100AEC00002000F0E7FC3B1D00222149184600F0D5
:100AFC0075FD1921002000F0DDFC194B93F9003035
:100B0C001A463B1D1C4918460CF062FA0122184982
:100B1C00184800F063FD1921002000F0CBFC3B1DB0
:100B2C0000221349184600F059FD00F0CFFA00BF1F
:100B3C00BFE700BF78D90008A0030020A005002063
:100B4C00A0040020AC050020FF09000849020008A1
:100B5C00350900081003002058030020B4050020BC
:100B6C00B5050020B8050020040200205CD900085F
:100B7C000400002068D900086CD9000880B594B036
:100B8C0000AF07F128032822002118460CF042FA86
:100B9C0007F1140300221A605A609A60DA601A6135
:100BAC003B1D00221A605A609A60DA600123BB6216
:100BBC004FF48033FB6200233B630123BB630223AE
:100BCC007B644FF48033BB644FF4E013FB6407F198
:100BDC002803184606F04EFB0346002B01D000F00C
:100BEC0061FA0F237B610223BB610023FB614FF48D
:100BFC0080633B6200237B6207F1140302211846D9
:100C0C0006F0BAFD0346002B01D000F04BFA12237C
:100C1C007B604FF40043FB6000233B613B1D184697
:100C2C0006F024FF0346002B01D000F03BFA00BF76
:100C3C005037BD4680BD000080B584B000AF3B1D71
:100C4C0000221A605A609A60434B444A1A60424B25
:100C5C004FF480729A60404B00221A733E4B002274
:100C6C001A753D4B4FF46022DA613B4B00225A60FF
:100C7C00394B08221A61384801F010F80346002B52
:100C8C0001D000F00FFA00237B600123BB6000232E
:100C9C00FB603B1D1946304801F0C8F90346002B98
:100CAC0001D000F0FFF90223BB603B1D19462A4816
:100CBC0001F0BCF90346002B01D000F0F3F903233B
:100CCC00BB603B1D1946244801F0B0F90346002BCC
:100CDC0001D000F0E7F90423BB603B1D19461E4808
:100CEC0001F0A4F90346002B01D000F0DBF9052339
:100CFC00BB603B1D1946184801F098F90346002BC0
:100D0C0001D000F0CFF90623BB603B1D19461248F9
:100D1C0001F08CF90346002B01D000F0C3F9072336
:100D2C00BB603B1D19460C4801F080F90346002BB3
:100D3C0001D000F0B7F90823BB603B1D19460648EB
:100D4C0001F074F90346002B01D000F0ABF900BFA1
:100D5C001037BD4680BD00BF0402002000240140B6
:100D6C0080B500AF124B134A1A60114B124A5A60ED
:100D7C000F4B00229A600E4B0022DA600C4B4FF4A2
:100D8C0080421A610A4B00225A61094B00229A6177
:100D9C00074B0022DA61064B00221A62044802F06B
:100DAC005BF80346002B01D000F07CF900BF80BD3E
:100DBC007802002000540040801A060080B596B0DE
:100DCC0000AF07F1480300221A605A609A60DA609B
:100DDC0007F1400300221A605A6007F12403002235
:100DEC001A605A609A60DA601A615A619A613B1D06
:100DFC002022002118460CF00DF93E4B3E4A1A6099
:100E0C003C4B47225A603B4B00229A60394B632281
:100E1C00DA60384B00221A61364B00225A61354B8E
:100E2C0000229A61334806F0D7FE0346002B01D00E
:100E3C0000F038F94FF48053BB6407F148031946AE
:100E4C002C4807F0D5F80346002B01D000F02AF906
:100E5C00284806F010FF0346002B01D000F022F9C1
:100E6C0000233B6400237B6407F1400319462148AF
:100E7C0007F036FC0346002B01D000F013F9602379
:100E8C007B620023BB620023FB6200233B630023D5
:100E9C007B630023BB630023FB6307F12403002265
:100EAC001946144806F0E2FF0346002B01D000F06F
:100EBC00F9F800237B600023BB600023FB60002358
:100ECC003B6100237B614FF40053BB6100233B6209
:100EDC003B1D1946074807F061FC0346002B01D067
:100EEC0000F0E0F8034800F029FD00BF5837BD467C
:100EFC0080BD00BF10030020002C014080B58EB0D7
:100F0C0000AF07F1280300221A605A609A60DA6079
:100F1C0007F1200300221A605A603B1D00221A6060
:100F2C005A609A60DA601A615A619A612C4B4FF0E0
:100F3C0080421A602A4B47225A60294B00229A6041
:100F4C00274B6322DA60264B00221A61244B0022C5
:100F5C009A61234806F040FE0346002B01D000F0B6
:100F6C00A1F84FF48053BB6207F1280319461C48C3
:100F7C0007F03EF80346002B01D000F093F8184818
:100F8C0006F079FE0346002B01D000F08BF800230D
:100F9C003B6200237B6207F120031946104807F0DF
:100FAC009FFB0346002B01D000F07CF860237B6094
:100FBC000023BB600023FB6000237B613B1D0422EC
:100FCC001946074806F052FF0346002B01D000F0EB
:100FDC0069F8034800F0B2FC00BF3837BD4680BD4D
:100FEC005803002080B582B000AF104B5B690F4AEC
:100FFC0043F0010353610D4B5B6903F001037B600C
:10100C007B68002200210B2001F0E1FA0B2001F09B
:10101C00FAFA00220021102001F0D9FA102001F078
:10102C00F2FA00BF0837BD4680BD00BF0010024079
:10103C0080B485B000AF1A4B9B69194A43F010037A
:10104C009361174B9B6903F01003FB60FB68144B17
:10105C009B69134A43F020039361114B9B6903F086
:10106C002003BB60BB680E4B9B690D4A43F0040325
:10107C0093610B4B9B6903F004037B607B68084B0B
:10108C009B69074A43F008039361054B9B6903F086
:10109C0008033B603B6800BF1437BD4680BC7047FB
:1010AC000010024080B400AF72B600BF00BFFDE775
:1010BC0080B483B000AF7860034A7B68136000BFD4
:1010CC000C37BD4680BC7047D409002080B500AFFA
:1010DC00044B1B78DBB2002B01D000F001F900BFF0
:1010EC0080BD00BF0000002080B582B000AF00F0D2
:1010FC00A3FA4FF4FA63012278215A4802F058FA05
:10110C000346002B01D00023A7E0574B7B6003E084
:10111C0000BF7B68013B7B607B68002BF8D1AE2263
:10112C000021782000F09CFA20220021782000F089
:10113C0097FA10220021782000F092FAB0220021B8
:10114C00782000F08DFAC8220021782000F088FA6F
:10115C0000220021782000F083FA10220021782050
:10116C0000F07EFA40220021782000F079FA8122EA
:10117C000021782000F074FAFF220021782000F082
:10118C006FFAA1220021782000F06AFAA622002131
:10119C00782000F065FAA8220021782000F060FA8F
:1011AC003F220021782000F05BFAA4220021782055
:1011BC0000F056FAD3220021782000F051FA0022D8
:1011CC000021782000F04CFAD5220021782000F084
:1011DC0047FAF0220021782000F042FAD9220021AF
:1011EC00782000F03DFA22220021782000F038FA15
:1011FC00DA220021782000F033FA12220021782024
:10120C0000F02EFADB220021782000F029FA2022AF
:10121C000021782000F024FA8D220021782000F0A3
:10122C001FFA14220021782000F01AFAAF220021B4
:10123C00782000F015FA2E220021782000F010FA08
:10124C00002000F0C1F8094B00221A80074B002245
:10125C005A80064B01225A71012318460837BD46A5
:10126C0080BD00BF7802002090D00300CC09002084
:10127C0080B5A2B000AF002387F8873024E097F840
:10128C008730503BDBB21A460021782000F0E8F999
:10129C0000220021782000F0E3F9102200217820B0
:1012AC0000F0DEF940233B7197F88730DB010B4AE5
:1012BC0099183B1D0133802218460BF0DFFE97F87E
:1012CC008730013387F8873097F88730072BD6D9CA
:1012DC0000BF00BF8837BD4680BD00BFCC050020D5
:1012EC0080B582B000AF0023FB71324B1B78022B10
:1012FC0037D0022B59DC002B02D0012B09D054E043
:10130C002D4B00221A702D4B00221A70294B0122F2
:10131C001A702B4B1B78DBB2002B43D1264B1B785E
:10132C00503BDBB21A460021782000F099F90022DC
:10133C000021782000F094F910220021782000F090
:10134C008FF91D4B1B78DB011E4A13443B60802335
:10135C003A684021782000F099F9164B02221A7055
:10136C0020E0174B1B78DBB2002B14D1124B1B78EF
:10137C000133DAB2104B1A700F4B1B78072B03D8C2
:10138C000C4B01221A700FE00C4B01221A70094B06
:10139C0000221A7008E0FB790A2B05D8FB7901337F
:1013AC00FB7101E000BF00E000BF00BF0837BD4685
:1013BC0080BD00BFD8090020D90900200000002002
:1013CC00B6050020CC05002080B582B000AF0346E6
:1013DC00FB71FB79002B01D1002300E0FF234FF4BC
:1013EC008062194603480BF015FE00BF0837BD4656
:1013FC0080BD00BFCC05002080B483B000AF034695
:10140C00FB800B46BB801346FB70FB887F2B48D8B8
:10141C00BB883F2B45D8254B1B79002B06D0FB787E
:10142C00002B0CBF01230023DBB2FB70FB78012BDC
:10143C001AD1FA88BB88DB0898B20346DB01134447
:10144C001B4AD35C5AB2BB8803F00703012101FA93
:10145C0003F35BB2134359B2FA880346DB0113441E
:10146C00C9B2134AD1541DE0FA88BB88DB0898B284
:10147C000346DB0113440E4AD35C5AB2BB8803F01B
:10148C000703012101FA03F35BB2DB435BB21340A8
:10149C0059B2FA880346DB011344C9B2044AD15449
:1014AC0000E000BF0C37BD4680BC7047CC09002063
:1014BC00CC05002080B483B000AF03460A46FB8005
:1014CC001346BB80054AFB881380044ABB885380B3
:1014DC0000BF0C37BD4680BC704700BFCC09002054
:1014EC0080B586B000AF03463960FB711346BB7103
:1014FC00394B1B881A463B681B7813447F2B07DC3F
:10150C00354B5B881A463B685B7813443F2B01DDF7
:10151C0000235DE000237B614BE03B685A68FB795C
:10152C00203B3968497801FB03F319467B690B446E
:10153C005B0013441B88FB6000233B6130E0FA68BE
:10154C003B6902FA03F303F40043002B10D0224B47
:10155C001A883B699BB2134498B21F4B5A887B691B
:10156C009BB213449BB2BA791946FFF745FF14E0BE
:10157C00194B1A883B699BB2134498B2164B5A8884
:10158C007B699BB2134499B2BB79002B0CBF01232E
:10159C000023DBB21A46FFF72FFF3B6901333B6197
:1015AC003B681B781A463B699342C8D37B6901336D
:1015BC007B613B685B781A467B699342ADD3064BE3
:1015CC001B883A68127813449AB2034B1A80FB7941
:1015DC0018461837BD4680BDCC09002080B584B0B4
:1015EC0000AFF860B9601346FB7112E0FB681B7822
:1015FC00FA79B9681846FFF773FF03461A46FB6879
:10160C001B789A4202D0FB681B7808E0FB68013318
:10161C00FB60FB681B78002BE8D1FB681B78184635
:10162C001037BD4680BD80B500AF0020FFF7CCFE63
:10163C00FFF71EFE00BF80BD80B483B000AF074B28
:10164C007B6002E07B68013B7B607B68002BF9D1FF
:10165C0000BF00BF0C37BD4680BC704790D0030064
:10166C0080B582B000AF0346FB710B46BB711346CD
:10167C007B71054B1B685B687A79B979F879984767
:10168C0000BF0837BD4680BDD409002090B583B09B
:10169C0000AF3A601A460346FB710B46BB7113460A
:1016AC00BB80074B01221A70064B1B681C68BB8859
:1016BC00B9793A687820A04700BF0C37BD4690BD79
:1016CC00B6050020D409002080B485B000AF154BBE
:1016DC009B69144A43F001039361124B9B6903F01D
:1016EC000103BB60BB680F4BDB690E4A43F08053B0
:1016FC00D3610C4BDB6903F080537B607B680A4B36
:10170C005B68FB60FB6823F0E063FB60FB6843F005
:10171C008063FB60044AFB68536000BF1437BD460E
:10172C0080BC7047001002400000014080B588B0BA
:10173C0000AF786007F1100300221A605A609A60BB
:10174C00DA607B681B68284A934249D1274B9B6916
:10175C00264A43F400739361244B9B6903F4007392
:10176C00FB60FB68214B9B69204A43F004039361A7
:10177C001E4B9B6903F00403BB60BB68FF233B61FA
:10178C0003237B6107F110031946194801F0C8F9CE
:10179C00184B194A1A60174B00225A60154B00223D
:1017AC009A60144B8022DA60124B4FF480721A61EB
:1017BC00104B4FF480625A610E4B00229A610D4B14
:1017CC000022DA610B4800F039FF0346002B01D0F0
:1017DC00FFF768FC7B68074A1A62064A7B6853620B
:1017EC0000BF2037BD4680BD0024014000100240E0
:1017FC0000080140340200200800024080B588B087
:10180C0000AF786007F1100300221A605A609A60EA
:10181C00DA607B681B682C4A934251D12B4B9B6935
:10182C002A4A43F008039361284B9B6903F0080391
:10183C00FB60FB68C0233B6112237B610323FB61CC
:10184C0007F110031946224801F06AF91F4BDB69B6
:10185C001E4A43F40013D3611C4BDB6903F40013E1
:10186C00BB60BB681B4B1C4A1A601A4B10225A6097
:10187C00184B00229A60174B8022DA60154B00221D
:10188C001A61144B00225A61124B00229A61114BBF
:10189C000022DA610F4800F0D1FE0346002B01D084
:1018AC00FFF700FC7B680B4A5A630A4A7B68536259
:1018BC00002200211F2000F08AFE1F2000F0A3FE52
:1018CC0000BF2037BD4680BD0054004000100240D0
:1018DC00000C0140CC0200206C00024080B485B0AA
:1018EC0000AF78607B681B68124A93420CD1124B94
:1018FC009B69114A43F4006393610F4B9B6903F49A
:10190C000063FB60FB6810E07B681B68B3F1804FE1
:10191C000BD1094BDB69084A43F00103D361064B39
:10192C00DB6903F00103BB60BB6800BF1437BD4625
:10193C0080BC7047002C01400010024080B58AB07A
:10194C0000AF786007F1140300221A605A609A60A5
:10195C00DA607B681B68284A934219D1274B9B6934
:10196C00264A43F004039361244B9B6903F0040360
:10197C003B613B694FF480737B610223BB610223A3
:10198C003B6207F1140319461D4801F0C9F82EE01B
:10199C007B681B68B3F1804F29D1184B9B69174AA0
:1019AC0043F008039361154B9B6903F00803FB603C
:1019BC00FB6808237B610223BB6102233B6207F1B6
:1019CC00140319460F4801F0ABF80F4B5B687B62B0
:1019DC007B6A23F440737B627B6A43F0E0637B6237
:1019EC007B6A43F480737B62074A7B6A536000BF57
:1019FC002837BD4680BD00BF002C014000100240BE
:101A0C0000080140000C01400000014080B400AF10
:101A1C0000BFFDE780B400AF00BFFDE780B400AFAE
:101A2C0000BFFDE780B400AF00BFFDE780B400AF9E
:101A3C0000BFFDE780B400AF00BFBD4680BC70475F
:101A4C0080B400AF00BFBD4680BC704780B400AF0F
:101A5C0000BFBD4680BC704780B500AF00F002F9F6
:101A6C0000BF80BD80B500AF024800F019FF00BF79
:101A7C0080BD00BF3402002080B500AF024800F0EA
:101A8C000FFF00BF80BD00BFCC02002080B500AFAF
:101A9C00024803F0ABFF00BF80BD00BFB0160020B2
:101AAC0080B500AF024801F0B1FE00BF80BD00BFA1
:101ABC007802002080B483B000AF78607B681B682C
:101ACC00064A934205D1064B01221A70054B00229F
:101ADC001A7000BF0C37BD4680BC704700540040E4
:101AEC0000000020B605002080B483B000AF786001
:101AFC007B681B68054A934202D1054B01221A7080
:101B0C0000BF0C37BD4680BC704700BF00240140AD
:101B1C00C805002080B586B000AF7860144A154B1C
:101B2C00D31A7B617B693B61134B1B68002B02D181
:101B3C00114B124A1A60104B1A687B6813443A69AD
:101B4C009A4207D20BF06EFA03460C221A604FF041
:101B5C00FF3309E0084B1B68FB60074B1A687B6876
:101B6C001344054A1360FB6818461837BD4680BD00
:101B7C000050002000040000DC090020F01C0020B4
:101B8C0080B400AF00BFBD4680BC7047FFF7F8FFC4
:101B9C000B480C490C4A002302E0D458C4500433BF
:101BAC00C4188C42F9D3094A094C002301E0136094
:101BBC000432A242FBD30BF03BFAFEF72BFF70472B
:101BCC0000000020D801002098E70008D801002070
:101BDC00F01C0020FEE7000080B500AF084B1B682E
:101BEC00074A43F010031360032000F0E5FC0F20BC
:101BFC0000F008F8FFF768FD0023184680BD00BF11
:101C0C000020024080B582B000AF7860124B1A6899
:101C1C00124B1B7819464FF47A73B3FBF1F3B2FBFA
:101C2C00F3F3184600F0FDFC0346002B01D0012312
:101C3C000EE07B680F2B0AD8002279684FF0FF303A
:101C4C0000F0C5FC064A7B681360002300E001230A
:101C5C0018460837BD4680BD0C000020140000203B
:101C6C001000002080B400AF054B1B781A46054BC2
:101C7C001B681344034A136000BFBD4680BC704709
:101C8C0014000020E009002080B400AF024B1B6858
:101C9C001846BD4680BC7047E009002080B586B070
:101CAC0000AF78600023FB7500233B610023BB6011
:101CBC000023FB607B68002B01D10123BEE07B6815
:101CCC009B68002B7B689B6A002B09D17B680022E8
:101CDC00DA627B68002283F824207868FFF726FDFF
:101CEC00786800F0F5FA0346FB757B689B6A03F095
:101CFC001003002B40F09980FB7D002B40F0958069
:101D0C007B689B6A23F4885323F0020343F002029E
:101D1C007B689A627B685A687B68DB691A437B68CC
:101D2C001B7B5B001343BA681343BB607B689B68E7
:101D3C00B3F5807F03D07B689B68012B02D14FF4F5
:101D4C00807300E000233A6913433B617B681B7D81
:101D5C00012B19D17B681B7B002B09D17B689B69FC
:101D6C00013B5A033B69134343F400633B610BE0B3
:101D7C007B689B6A43F020027B689A627B68DB6A13
:101D8C0043F001027B68DA627B681B685B6823F4B2
:101D9C0069417B681B683A690A435A607B681B6817
:101DAC009A68284B13407A681268B9680B439360A1
:101DBC007B689B68B3F5807F03D07B689B68012BA5
:101DCC0004D17B681B69013B1B05FB607B681B68AE
:101DDC00DB6A23F470017B681B68FA680A43DA62D9
:101DEC007B681B689A68184B1340BA689A420BD1EF
:101DFC007B680022DA627B689B6A23F0030343F062
:101E0C0001027B689A6218E07B689B6A23F01203DC
:101E1C0043F010027B689A627B68DB6A43F0010234
:101E2C007B68DA620123FB7507E07B689B6A43F0F1
:101E3C0010027B689A620123FB75FB7D18461837EC
:101E4C00BD4680BDFDF7E1FFFE0E1FFF80B586B0DD
:101E5C0000AFF860B9607A600023FB75FB681B6803
:101E6C00644A934204D0FB681B68634A934206D1D0
:101E7C00604B5B6803F47023002B40F0B380FB686D
:101E8C0093F82430012B01D10223AEE0FB68012230
:101E9C0083F82420F86800F0C1F90346FB75FB7D3C
:101EAC00002B40F09A80FB689B6A23F4706323F04C
:101EBC00010343F48072FB689A62FB681B684E4A0C
:101ECC00934205D14B4B5B6803F47023002B15D167
:101EDC00FB689B6A23F48012FB689A62FB681B68A0
:101EEC005B6803F48063002B26D0FB689B6A23F4A9
:101EFC00405343F48052FB689A621DE0FB689B6A76
:101F0C0043F48012FB689A62FB681B68394A93425F
:101F1C0004D0FB681B68384A93420DD1354B5B6883
:101F2C0003F48063002B07D0FB689B6A23F44053B7
:101F3C0043F48052FB689A62FB689B6A03F48053FB
:101F4C00002B06D0FB68DB6A23F00602FB68DA6222
:101F5C0002E0FB680022DA62FB68002283F824208E
:101F6C00FB681B6A254A9A62FB681B6A244ADA6280
:101F7C00FB681B6A234A1A63FB681B686FF002023A
:101F8C001A60FB681B689A68FB681B6842F48072D5
:101F9C009A60FB68186AFB681B684C331946BA6870
:101FAC007B6800F0A5FBFB681B689B6803F460234F
:101FBC00B3F5602F08D1FB681B689A68FB681B6837
:101FCC0042F4A0029A600FE0FB681B689A68FB68F9
:101FDC001B6842F480129A6006E0FB68002283F8CA
:101FEC00242001E00123FB75FB7D18461837BD4604
:101FFC0080BD00BF00240140002801405F23000881
:10200C00DB230008F723000880B483B000AF7860AE
:10201C0000BF0C37BD4680BC704780B483B000AFA6
:10202C00786000BF0C37BD4680BC704780B485B06B
:10203C0000AF786039600023FB730023BB607B68C2
:10204C0093F82430012B01D10223DCE07B680122C0
:10205C0083F824203B685B68062B1CD87B681B68C4
:10206C00596B3B685A6813469B001344053B1F226F
:10207C0002FA03F3DB4319403B6818683B685A6863
:10208C0013469B001344053B00FA03F27B681B6864
:10209C000A435A633CE03B685B680C2B1CD87B689A
:1020AC001B68196B3B685A6813469B001344233B0F
:1020BC001F2202FA03F3DB4319403B6818683B68A4
:1020CC005A6813469B001344233B00FA03F27B68C7
:1020DC001B680A431A631BE07B681B68D96A3B6860
:1020EC005A6813469B001344413B1F2202FA03F328
:1020FC00DB4319403B6818683B685A6813469B00E1
:10210C001344413B00FA03F27B681B680A43DA6212
:10211C003B681B68092B1CD97B681B68D9683B681A
:10212C001A6813465B0013441E3B072202FA03F3A2
:10213C00DB4319403B6898683B681A6813465B00A0
:10214C0013441E3B00FA03F27B681B680A43DA60F7
:10215C0019E07B681B6819693B681A6813465B00B9
:10216C001344072202FA03F3DB4319403B689868D7
:10217C003B681A6813465B00134400FA03F27B6851
:10218C001B680A431A613B681B68102B03D03B6821
:10219C001B68112B32D17B681B681D4A934225D1D9
:1021AC007B681B689B6803F40003002B26D17B68BB
:1021BC001B689A687B681B6842F400029A603B6853
:1021CC001B68102B1AD1134B1B68134AA2FB032359
:1021DC009A0C13469B0013445B00BB6002E0BB6887
:1021EC00013BBB60BB68002BF9D107E07B689B6AA5
:1021FC0043F020027B689A620123FB737B68002208
:10220C0083F82420FB7B18461437BD4680BC7047EE
:10221C00002401400C00002083DE1B4380B584B0F9
:10222C0000AF78600023FB600023BB607B681B68F9
:10223C009B6803F00103012B40D07B681B689A68F4
:10224C007B681B6842F001029A601F4B1B681F4A97
:10225C00A2FB03239B0CBB6002E0BB68013BBB6091
:10226C00BB68002BF9D1FFF70FFDF8601FE0FFF7FB
:10227C000BFD0246FB68D31A022B18D97B681B682E
:10228C009B6803F00103012B11D07B689B6A43F020
:10229C0010027B689A627B68DB6A43F001027B6800
:1022AC00DA627B68002283F82420012307E07B6834
:1022BC001B689B6803F00103012BD8D1002318463F
:1022CC001037BD4680BD00BF0C00002083DE1B43D1
:1022DC0080B584B000AF78600023FB607B681B681E
:1022EC009B6803F00103012B2ED17B681B689A6855
:1022FC007B681B6822F001029A60FFF7C5FCF8604E
:10230C001BE0FFF7C1FC0246FB68D31A022B14D961
:10231C007B681B689B6803F00103012B0DD17B6864
:10232C009B6A43F010027B689A627B68DB6A43F01D
:10233C0001027B68DA62012307E07B681B689B68FB
:10234C0003F00103012BDCD0002318461037BD46E7
:10235C0080BD80B584B000AF78607B685B6AFB6041
:10236C00FB689B6A03F05003002B27D1FB689B6A28
:10237C0043F40072FB689A62FB681B689B6803F469
:10238C006023B3F5602F15D1FB681B7B002B11D19B
:10239C00FB689B6A23F48072FB689A62FB689B6AF9
:1023AC0003F48053002B05D1FB689B6A43F00102B8
:1023BC00FB689A62F868FFF797FB04E0FB681B6AFE
:1023CC001B6B7868984700BF1037BD4680BD80B541
:1023DC0084B000AF78607B685B6AFB60F868FFF7DD
:1023EC0013FE00BF1037BD4680BD80B584B000AF72
:1023FC0078607B685B6AFB60FB689B6A43F0400219
:10240C00FB689A62FB68DB6A43F00402FB68DA62E1
:10241C00F868FFF702FE00BF1037BD4680BD000014
:10242C0080B485B000AF78607B6803F00703FB6075
:10243C000C4BDB68BB60BA684FF6FF031340BB6004
:10244C00FB681A02BB68134343F0BF6343F40033C9
:10245C00BB60044ABB68D36000BF1437BD4680BC68
:10246C00704700BF00ED00E080B400AF044BDB68A8
:10247C001B0A03F007031846BD4680BC704700BF1B
:10248C0000ED00E080B483B000AF0346FB7197F918
:10249C000730002B0BDBFB7903F01F02064997F981
:1024AC0007305B09012000FA02F241F8232000BF3B
:1024BC000C37BD4680BC704700E100E080B483B0AF
:1024CC0000AF03463960FB7197F90730002B0ADB2C
:1024DC003B68DAB20C4997F907301201D2B20B44BF
:1024EC0083F800230AE03B68DAB20849FB7903F071
:1024FC000F03043B1201D2B20B441A7600BF0C3707
:10250C00BD4680BC704700BF00E100E000ED00E07C
:10251C0080B489B000AFF860B9607A60FB6803F0F2
:10252C000703FB61FB69C3F10703042B28BF0423DA
:10253C00BB61FB690433062B02D9FB69033B00E04A
:10254C0000237B614FF0FF32BB6902FA03F3DA43DD
:10255C00BB681A407B699A404FF0FF317B6901FAE6
:10256C0003F3D9437B680B40134318462437BD460D
:10257C0080BC704780B582B000AF78607B68013B4F
:10258C00B3F1807F01D301230FE00A4A7B68013B42
:10259C0053600F214FF0FF30FFF790FF054B0022E7
:1025AC009A60044B07221A60002318460837BD4670
:1025BC0080BD00BF10E000E080B582B000AF786055
:1025CC007868FFF72DFF00BF0837BD4680BD80B58A
:1025DC0086B000AF0346B9607A60FB7300237B6161
:1025EC00FFF742FF78617A68B9687869FFF790FF66
:1025FC00024697F90F3011461846FFF75FFF00BFF0
:10260C001837BD4680BD80B582B000AF0346FB7164
:10261C0097F907301846FFF735FF00BF0837BD465E
:10262C0080BD80B582B000AF78607868FFF7A2FFFC
:10263C00034618460837BD4680BD000080B485B0FF
:10264C0000AF78600023FB607B68002B01D1012375
:10265C0043E07B681B681A46224B1344224AA2FBB8
:10266C0003231B099A007B681A647B681F4ADA6390
:10267C007B68022283F821207B681B681B68FB6047
:10268C00FB6823F47F5323F03003FB607B685A68AC
:10269C007B689B681A437B68DB681A437B681B6901
:1026AC001A437B685B691A437B689B691A437B6896
:1026BC00DB691343FA681343FB607B681B68FA6899
:1026CC001A607B6800229A637B68012283F82120C0
:1026DC007B68002283F82020002318461437BD465F
:1026EC0080BC7047F8FFFDBFCDCCCCCC00000240C5
:1026FC0080B586B000AFF860B9607A603B600023AB
:10270C00FB75FB6893F82030012B01D102234BE0C1
:10271C00FB68012283F82020FB6893F82130DBB2A0
:10272C00012B3AD1FB68022283F82120FB6800229E
:10273C009A63FB681B681A68FB681B6822F001022D
:10274C001A603B687A68B968F86800F0BCF9FB68F5
:10275C00DB6A002B08D0FB681B681A68FB681B68D7
:10276C0042F00E021A600FE0FB681B681A68FB68E7
:10277C001B6822F004021A60FB681B681A68FB686D
:10278C001B6842F00A021A60FB681B681A68FB6837
:10279C001B6842F001021A6005E0FB68002283F816
:1027AC0020200223FB75FB7D18461837BD4680BDE3
:1027BC0080B584B000AF78600023FB737B6893F81E
:1027CC002130DBB2022B05D07B6804229A630123F3
:1027DC00FB7351E07B681B681A687B681B6822F0EE
:1027EC000E021A607B681B681A687B681B6822F0F3
:1027FC0001021A607B681B68224A934229D07B68CD
:10280C001B68214A934222D07B681B681F4A934263
:10281C001AD07B681B681E4A934212D07B681B68D7
:10282C001C4A93420AD07B681B681B4A934202D114
:10283C004FF480130EE04FF080730BE04FF48033B5
:10284C0008E04FF4805305E04FF4807302E010234E
:10285C0000E00123114A53607B68012283F8212098
:10286C007B68002283F820207B685B6B002B03D0F5
:10287C007B685B6B78689847FB7B18461037BD46C6
:10288C0080BD00BF080002401C0002403000024026
:10289C0044000240580002406C000240000002401C
:1028AC0080B584B000AF78607B68DB6B1B68FB6025
:1028BC007B681B681B68BB607B681B6C04229A409E
:1028CC00FB681340002B4FD0BB6803F00403002BB4
:1028DC004AD07B681B681B6803F02003002B07D1D0
:1028EC007B681B681A687B681B6822F004021A60FC
:1028FC007B681B68664A934229D07B681B68654AD3
:10290C00934222D07B681B68634A93421AD07B683F
:10291C001B68624A934212D07B681B68604A9342E0
:10292C000AD07B681B685F4A934202D14FF4800344
:10293C000EE04FF080630BE04FF4802308E04FF47F
:10294C00804305E04FF4806302E0402300E0042361
:10295C00554A53607B68DB6A002B00F094807B68DF
:10296C00DB6A786898478EE07B681B6C02229A4081
:10297C00FB681340002B56D0BB6803F00203002BFE
:10298C0051D07B681B681B6803F02003002B0BD114
:10299C007B681B681A687B681B6822F00A021A6045
:1029AC007B68012283F821207B681B68384A93429C
:1029BC0029D07B681B68374A934222D07B681B68FE
:1029CC00354A93421AD07B681B68344A934212D022
:1029DC007B681B68324A93420AD07B681B68314A79
:1029EC00934202D14FF400130EE04FF000730BE052
:1029FC004FF4003308E04FF4005305E04FF400733C
:102A0C0002E0202300E00223274A53607B68002267
:102A1C0083F820207B689B6A002B34D07B689B6AF0
:102A2C00786898472FE07B681B6C08229A40FB68FB
:102A3C001340002B28D0BB6803F00803002B23D0D5
:102A4C007B681B681A687B681B6822F00E021A6090
:102A5C007B681A6C7B68DB6B012101FA02F25A600D
:102A6C007B6801229A637B68012283F821207B68B2
:102A7C00002283F820207B681B6B002B04D07B6822
:102A8C001B6B7868984700BF00BF1037BD4680BDF0
:102A9C00080002401C00024030000240440002408A
:102AAC00580002406C0002400000024080B483B029
:102ABC0000AF78607B6893F82130DBB218460C3796
:102ACC00BD4680BC704780B485B000AFF860B9607B
:102ADC007A603B60FB681A6CFB68DB6B012101FAC6
:102AEC0002F25A60FB681B683A685A60FB685B68C4
:102AFC00102B08D1FB681B687A689A60FB681B680E
:102B0C00BA68DA6007E0FB681B68BA689A60FB6811
:102B1C001B687A68DA6000BF1437BD4680BC70470A
:102B2C0080B48BB000AF7860396000237B620023E7
:102B3C003B6269E101227B6A02FA03F3FB613B68A9
:102B4C001B68FA691340BB61BA69FB699A4240F091
:102B5C0058813B685B689A4A93425ED0984A93428C
:102B6C0075D8984A934258D0964A93426FD8964A51
:102B7C00934252D0944A934269D8944A93424CD08F
:102B8C00924A934263D8924A934246D0904A9342D7
:102B9C005DD8122B2AD8122B59D801A252F823F047
:102BAC00272C0008012C0008132C0008552C0008B9
:102BBC005B2C00085B2C00085B2C00085B2C0008CD
:102BCC005B2C00085B2C00085B2C00085B2C0008BD
:102BDC005B2C00085B2C00085B2C00085B2C0008AD
:102BEC005B2C0008092C00081D2C0008794A934224
:102BFC0013D02CE03B68DB683B6229E03B68DB6868
:102C0C0004333B6224E03B68DB6808333B621FE023
:102C1C003B68DB680C333B621AE03B689B68002B1B
:102C2C0002D104233B6213E03B689B68012B05D166
:102C3C0008233B627B68FA691A6109E008233B624E
:102C4C007B68FA695A6103E000233B6200E000BF35
:102C5C00BB69FF2B01D87B6801E07B6804337B6187
:102C6C00BB69FF2B02D87B6A9B0002E07B6A083BA6
:102C7C009B003B617B691A680F213B6901FA03F3E6
:102C8C00DB431A40396A3B6901FA03F31A437B6947
:102C9C001A603B685B6803F08053002B00F0B18036
:102CAC004D4B9B694C4A43F0010393614A4B9B6922
:102CBC0003F00103BB60BB68484A7B6A9B08023384
:102CCC0052F82330FB607B6A03F003039B000F2256
:102CDC0002FA03F3DB43FA681340FB607B68404A5B
:102CEC00934213D07B683F4A93420DD07B683E4A97
:102CFC00934207D07B683D4A934201D1032306E0FF
:102D0C00042304E0022302E0012300E000237A6A9A
:102D1C0002F0030292009340FA681343FB602F49C0
:102D2C007B6A9B080233FA6841F823203B685B6896
:102D3C0003F48013002B06D02D4B9A682C49BB69E9
:102D4C0013438B6006E02A4B9A68BB69DB43284926
:102D5C0013408B603B685B6803F40013002B06D0B8
:102D6C00234BDA682249BB691343CB6006E0204B46
:102D7C00DA68BB69DB431E491340CB603B685B6878
:102D8C0003F40033002B06D0194B5A681849BB6961
:102D9C0013434B6006E0164B5A68BB69DB4314497E
:102DAC0013404B603B685B6803F48033002B21D0ED
:102DBC000F4B1A680E49BB6913430B6021E000BF2F
:102DCC000000321000003110000022100000211011
:102DDC000000121000001110001002400000014011
:102DEC0000080140000C014000100140001401409B
:102DFC00000401400B4B1A68BB69DB4309491340C3
:102E0C000B607B6A01337B623B681A687B6A22FA2F
:102E1C0003F3002B7FF48EAE00BF00BF2C37BD46F2
:102E2C0080BC70470004014080B483B000AF786070
:102E3C000B467B8013467B707B78002B03D07A8803
:102E4C007B681A6103E07B881A047B681A6100BFF7
:102E5C000C37BD4680BC704780B584B000AF78603D
:102E6C007B68002B01D101232BE17B6893F83D306B
:102E7C00DBB2002B06D17B68002283F83C207868FB
:102E8C00FEF7BCFC7B68242283F83D207B681B6822
:102E9C001A687B681B6822F001021A607B681B6849
:102EAC001A687B681B6842F400421A607B681B68D6
:102EBC001A687B681B6822F400421A6004F0A4FDB7
:102ECC00F8607B685B68814A934207D8FB68804A4C
:102EDC00934294BF01230023DBB206E0FB687D4ADA
:102EEC00934294BF01230023DBB2002B01D00123BA
:102EFC00E7E0FB68784AA2FB03239B0CBB607B6872
:102F0C001B685B6823F03F017B681B68BA680A4347
:102F1C005A607B681B681B6A23F03F017B685B6807
:102F2C006A4A934202D8BB68013309E0BB684FF48C
:102F3C00967202FB03F3694AA2FB03239B0901333C
:102F4C007A6812680B4313627B681B68DB6923F495
:102F5C004F4222F0FF027B685B685C498B4219D8B8
:102F6C00FB68591E7B685B685B00B1FBF3F3591C73
:102F7C0040F6FC730B40002B0AD0FB68591E7B6893
:102F8C005B685B00B1FBF3F30133C3F30B0351E05C
:102F9C0004234FE07B689B68002B11D1FB68581E03
:102FAC007B6859680B465B000B44B0FBF3F30133B1
:102FBC00C3F30B03002B0CBF01230023DBB212E085
:102FCC00FB68581E7B6859680B469B000B449900A4
:102FDC000B44B0FBF3F30133C3F30B03002B0CBF17
:102FEC0001230023DBB2002B01D0012322E07B68FC
:102FFC009B68002B0ED1FB68581E7B6859680B46EA
:10300C005B000B44B0FBF3F30133C3F30B0343F44A
:10301C0000430FE0FB68581E7B6859680B469B0009
:10302C000B4499000B44B0FBF3F30133C3F30B03D4
:10303C0043F44043796809681343CB617B681B6890
:10304C001B6823F0C0017B68DA697B681B6A1A4332
:10305C007B681B680A431A607B681B689B6823F4B7
:10306C00034323F0FF037A6811697A68D26811432D
:10307C007A6812680B4393607B681B68DB6823F0EB
:10308C00FF017B685A697B689B691A437B681B68E4
:10309C000A43DA607B681B681A687B681B6842F01D
:1030AC0001021A607B6800221A647B68202283F874
:1030BC003D207B6800221A637B68002283F83E2047
:1030CC00002318461037BD4680BD00BFA086010006
:1030DC007F841E00FF083D0083DE1B43D34D62102E
:1030EC0080B483B000AF78607B681B685B6903F0C9
:1030FC008003802B03D17B681B6800221A6100BF00
:10310C000C37BD4680BC704780B588B002AFF86004
:10311C007A601A460B467B8113463B81FEF7B4FD61
:10312C007861FB6893F83D30DBB2202B40F0E080F7
:10313C007B690093192301227049F86802F016F993
:10314C000346002B01D00223D3E0FB6893F83C30FC
:10315C00012B01D10223CCE0FB68012283F83C2037
:10316C00FB681B681B6803F00103012B07D0FB688D
:10317C001B681A68FB681B6842F001021A60FB6846
:10318C001B681A68FB681B6822F400621A60FB68F3
:10319C00212283F83D20FB68102283F83E20FB6837
:1031AC0000221A64FB687A685A62FB683A895A856D
:1031BC00FB685B8D9AB2FB681A85FB68504ADA6231
:1031CC0079897B693A6AF86801F0FAFD0346002BAD
:1031DC0001D001238DE000233B61FB681B685B6918
:1031EC003B61FB681B689B693B613B6966E07A69E4
:1031FC00396AF86802F0D4F90346002B0DD0FB684D
:10320C001B6C042B07D1FB681B681A68FB681B68D6
:10321C0042F400721A6001236BE0FB685B6A1A7857
:10322C00FB681B681A61FB685B6A5A1CFB685A6274
:10323C00FB685B8D9BB2013B9AB2FB685A85FB68BD
:10324C001B8D013B9AB2FB681A85FB681B685B6996
:10325C0003F00403042B1BD1FB681B8D002B17D030
:10326C00FB685B6A1A78FB681B681A61FB685B6A0F
:10327C005A1CFB685A62FB685B8D9BB2013B9AB28D
:10328C00FB685A85FB681B8D013B9AB2FB681A855B
:10329C007A69396AF86802F0CBF90346002B0DD035
:1032AC00FB681B6C042B07D1FB681B681A68FB6856
:1032BC001B6842F400721A6001231AE0FB681B8D34
:1032CC00002B94D1FB681B681A68FB681B6842F4DE
:1032DC0000721A60FB68202283F83D20FB680022F4
:1032EC0083F83E20FB68002283F83C20002300E09A
:1032FC00022318461837BD4680BD00BF02001000DF
:10330C000000FFFF80B58AB002AFF8600846114696
:10331C001A4603467B810B463B811346FB800023F8
:10332C007B61FEF7B1FCF861FB6893F83D30DBB2D2
:10333C00202B40F02E81994B1B68DB08984AA2FB8E
:10334C0003231A0A13469B0013449A0013447B610F
:10335C007B69013B7B617B69002B12D1FB680022EE
:10336C001A63FB68202283F83D20FB68002283F857
:10337C003E20FB681B6C43F02002FB681A6402239E
:10338C0008E1FB681B689B6903F00203022BDFD08A
:10339C00FB6893F83C30012B01D10223FAE0FB6867
:1033AC00012283F83C20FB681B681B6803F00103B7
:1033BC00012B07D0FB681B681A68FB681B6842F07E
:1033CC0001021A60FB681B681A68FB681B6822F410
:1033DC0000621A60FB68212283F83D20FB684022C2
:1033EC0083F83E20FB6800221A64FB68BA6A5A62B2
:1033FC00FB68BA8D5A85FB685B8D9AB2FB681A859F
:10340C00FB68684ADA627A89FB685A643A89FB6815
:10341C009A64FA88FB68DA64FB6800221A65FB6818
:10342C001B8D002B00F0A180FB685B6B002B22D066
:10343C00FB685B6B5C4A9A62FB685B6B5B4A1A636A
:10344C00FB685B6B0022DA62FB685B6B00225A63E1
:10345C00FB68586BFB685B6A1946FB681B6810338A
:10346C001A46FB681B8DFFF743F90346FB76FB7E80
:10347C00002B66D113E0FB68202283F83D20FB680B
:10348C00002283F83E20FB681B6C43F08002FB6833
:10349C001A64FB68002283F83C2001237AE0F88848
:1034AC003A897989FB690193232300930346F868D1
:1034BC0001F008FD0346002B22D0FB685B6B18461D
:1034CC00FFF776F90346FB76FB685B6B00229A628A
:1034DC00FB681B681A68FB681B6822F480621A6020
:1034EC00FB6800221A85FB6800225A85FB681B6862
:1034FC001A68FB681B6822F001021A60012349E07C
:10350C0000233B61FB681B685B693B61FB681B68C4
:10351C009B693B613B69FB68002283F83C20FB689C
:10352C001B685A68FB681B6842F480725A60FB681F
:10353C001B685A68FB681B6842F400625A600023DF
:10354C0028E0FB68202283F83D20FB68002283F8EA
:10355C003E20FB681B6C43F01002FB681A64FB688E
:10356C00002283F83C20012314E0FB68202283F81E
:10357C003D20FB68002283F83E20FB681B6C43F067
:10358C004002FB681A64FB68002283F83C2001238C
:10359C0000E0022318462037BD4680BD0C000020F9
:1035AC0089B5F8140000FFFFFD4F0008BB5100085F
:1035BC0080B58AB002AFF8607A603B600B467B81C5
:1035CC00FEF762FBF8610023BB61FB6893F83D30AA
:1035DC00DBB2202B40F01181FB69009319230122EF
:1035EC008849F86801F0C2FE0346002B01D0022383
:1035FC0004E1FB6893F83C30012B01D10223FDE080
:10360C00FB68012283F83C20FB681B681B6803F0F5
:10361C000103012B07D0FB681B681A68FB681B6849
:10362C0042F001021A60FB681B681A68FB681B6891
:10363C0022F400621A60FB68242283F83D20FB68A8
:10364C0000221A64FB68704ADA62FB681B681A680D
:10365C00FB681B6842F480721A60FB6900933B683C
:10366C0000224FF00111F86801F080FE0346002B98
:10367C000DD0FB681B681B6803F48073B3F5807F67
:10368C0003D1FB684FF400721A640323B6E07B8904
:10369C00DBB21A46FB681B6802F0FE021A61FEF7E9
:1036AC00F3FAF861FB681B685B6903F00203022BF9
:1036BC000CBF01230023DBB2FB75FB681B685B6945
:1036CC0003F48063B3F5806F0CBF01230023DBB2DE
:1036DC00BB7525E0FEF7D8FA0246FB69D31A3A68A7
:1036EC009A4202D33B68002B03D1FB68A02283F8DB
:1036FC003D20FB681B685B6903F00203022B0CBFC7
:10370C0001230023DBB2FB75FB681B685B6903F4C8
:10371C008063B3F5806F0CBF01230023DBB2BB7554
:10372C00FB6893F83D30DBB2A02B05D0FB7D002B62
:10373C0002D1BB7D002BCDD0FB68202283F83D202D
:10374C00FB681B685B6903F00203022B29D1FB6841
:10375C001B681A68FB681B6842F400721A6000232D
:10376C003B61FB681B685B693B61FB681B689B6981
:10377C003B613B69FB690093192301222149F868DD
:10378C0001F0F4FD0346002B01D0012336E0FB6869
:10379C00202283F83D20FB68002283F83C20002384
:1037AC002CE0FB681B681A68FB681B6842F400720B
:1037BC001A60FB681B686FF480625A61FB690093A6
:1037CC00192301220F49F86801F0D0FD0346002BA4
:1037DC0001D0012312E0BB690133BB61BA697B687C
:1037EC009A42FFF432AFFB68202283F83D20FB683D
:1037FC00002283F83C20012300E0022318462037E6
:10380C00BD4680BD020010000000FFFF80B588B0EF
:10381C0000AF78600023BB617B681B685B687B61D1
:10382C007B68DB6A3B617B6893F83E30FB737B689B
:10383C0093F83D30BB73FB7B102B03D0FB7B402BF1
:10384C0040F0C1807B681B689B69BB617B681B680F
:10385C005B69FB61FB6903F00103002B0DD13B6934
:10386C00B3F52A0F03D03B69B3F12A4F01D10123E1
:10387C0000E00023012B00F03281FB6903F001030F
:10388C00002B0CD07B695B0A03F00103002B06D0E4
:10389C00786801F075FF786800F0E1FC92E0FB6954
:1038AC00DB0803F00103002B09D07B695B0A03F0F2
:1038BC000103002B03D0786800F056FD82E0FB6911
:1038CC005B0803F00103002B09D07B695B0A03F052
:1038DC000103002B03D0786800F06FFD72E0BB6928
:1038EC009B0803F00103002B3BD07B681B685B68D3
:1038FC0003F40063B3F5006F00F0F380FB69DB09A0
:10390C0003F00103002B0FD07B699B0A03F001032A
:10391C00002B09D0FB699B0803F00103002B03D19A
:10392C00786800F039F94DE0FB699B0803F001035E
:10393C00002B00F0D6807B695B0A03F00103002B9F
:10394C0000F0CF80BB7B212B03D1786800F0C0F94D
:10395C00C7E0FB7B402B40F0C480786800F02EFA67
:10396C00BFE07B681B685B6803F40063B3F5006F12
:10397C0000F0B780FB699B0903F00103002B0FD00B
:10398C007B699B0A03F00103002B09D0FB699B08A0
:10399C0003F00103002B03D1786800F0A7FA11E0C3
:1039AC00FB699B0803F00103002B00F09A807B69F4
:1039BC005B0A03F00103002B00F09380786800F0A1
:1039CC005DFB8EE08DE07B681B6C002B04D07B686C
:1039DC001B685B69FB6107E07B681B689B69BB61CB
:1039EC007B681B685B69FB61FB695B0803F0010387
:1039FC00002B12D07B695B0A03F00103002B0CD067
:103A0C007B681B6C002B03D07B681B689B69BB61BC
:103A1C00B969786800F028FF66E0FB691B0903F0C0
:103A2C000103002B09D07B695B0A03F00103002B17
:103A3C0003D0786800F062FF56E0BB7B212B02D0EC
:103A4C00BB7B292B25D1FB69DB0903F00103002B80
:103A5C000FD07B699B0A03F00103002B09D0FB6993
:103A6C009B0803F00103002B03D1786800F040FEA3
:103A7C0039E0FB699B0803F00103002B33D07B6911
:103A8C005B0A03F00103002B2DD0786800F06DFE6B
:103A9C0029E0FB699B0903F00103002B0FD07B6924
:103AAC009B0A03F00103002B09D0FB699B0803F070
:103ABC000103002B03D1786800F077FE14E0FB695A
:103ACC009B0803F00103002B0ED07B695B0A03F00B
:103ADC000103002B08D0786800F0A5FE04E000BFBD
:103AEC0002E000BF00E000BF2037BD4680BD80B4BF
:103AFC0083B000AF786000BF0C37BD4680BC704708
:103B0C0080B483B000AF786000BF0C37BD4680BC7A
:103B1C00704780B483B000AF786000BF0C37BD46EF
:103B2C0080BC704780B483B000AF786000BF0C37A6
:103B3C00BD4680BC704780B483B000AF78600B4644
:103B4C00FB7013463B8000BF0C37BD4680BC7047F2
:103B5C0080B483B000AF786000BF0C37BD4680BC2A
:103B6C00704780B483B000AF786000BF0C37BD469F
:103B7C0080BC704780B483B000AF786000BF0C3756
:103B8C00BD4680BC704780B483B000AF786000BF86
:103B9C000C37BD4680BC704780B584B000AF7860F0
:103BAC007B6893F83D30FB737B6893F83E30BB73B6
:103BBC007B68DB6ABB607B681B8D002B50D1FB7B69
:103BCC00212B4DD1BB68082B1DD0BB68202B1AD0E4
:103BDC00BB6813F5803F16D07B681B685A687B68FE
:103BEC001B6822F4E0625A607B6811221A637B68BE
:103BFC00002283F83E207B68202283F83D207868E1
:103C0C00FFF775FF60E07B681B685A687B681B6870
:103C1C0022F4E0625A607B681B681A687B681B6838
:103C2C0042F400721A607B6800221A637B682022BF
:103C3C0083F83D207B6893F83E30DBB2402B07D1F4
:103C4C007B68002283F83E207868FDF733FF3BE069
:103C5C007B68002283F83E207868FFF748FF33E04A
:103C6C00FB7B212B05D0BB7B402B2DD1FB7B222B4F
:103C7C002AD17B685B8D9BB2002B08D17B681B68BB
:103C8C005A687B681B6822F480625A601CE07B686F
:103C9C0093F83E30DBB2402B03D1786800F08EF8FD
:103CAC0012E07B685B6A1A787B681B681A617B6818
:103CBC005B6A5A1C7B685A627B685B8D9BB2013BCA
:103CCC009AB27B685A85FFE700BF1037BD4680BDAE
:103CDC0080B584B000AF78607B68DB6AFB607B6882
:103CEC0093F83D30DBB2212B64D17B685B8D9BB2AA
:103CFC00002B12D07B685B6A1A787B681B681A6190
:103D0C007B685B6A5A1C7B685A627B685B8D9BB2D2
:103D1C00013B9AB27B685A854CE0FB68082B1DD09E
:103D2C00FB68202B1AD0FB6813F5803F16D07B68FC
:103D3C001B685A687B681B6822F4E0625A607B68D7
:103D4C0011221A637B68002283F83E207B682022B4
:103D5C0083F83D207868FFF7CAFE2BE07B681B6870
:103D6C005A687B681B6822F4E0625A607B681B68A7
:103D7C001A687B681B6842F400721A607B68002228
:103D8C001A637B68202283F83D207B6893F83E30D1
:103D9C00DBB2402B07D17B68002283F83E20786889
:103DAC00FDF788FE06E07B68002283F83E207868E9
:103DBC00FFF79DFE00BF1037BD4680BD80B584B0B7
:103DCC0000AF78607B6893F83D30FB737B681B6DAC
:103DDC00002B1DD17B68DB6C012B0BD17B689B6CA2
:103DEC00DAB27B681B681A617B681B6D9A1C7B6856
:103DFC001A6577E07B689B6C9BB21B12DAB27B680E
:103E0C001B681A617B681B6D5A1C7B681A6569E01C
:103E1C007B681B6D012B0BD17B689B6CDAB27B68CA
:103E2C001B681A617B681B6D5A1C7B681A6559E00C
:103E3C007B681B6D022B52D1FB7B222B0DD17B6837
:103E4C001B681A687B681B6842F480721A607B6876
:103E5C001B6D5A1C7B681A6544E07B685B8D9BB2BA
:103E6C00002B15D0FB7B212B12D17B685B6A1A7857
:103E7C007B681B681A617B685B6A5A1C7B685A6298
:103E8C007B685B8D9BB2013B9AB27B685A8529E0BB
:103E9C007B685B8D9BB2002B24D1FB7B212B21D12A
:103EAC007B681B685A687B681B6822F4E0625A6066
:103EBC007B681B681A687B681B6842F400721A6086
:103ECC007B6800221A637B68202283F83D207B6884
:103EDC00002283F83E207868FDF7ECFD02E078685C
:103EEC00FFF7FEF800BF1037BD4680BD80B584B02B
:103EFC0000AF78607B6893F83D30DBB2222B40F04A
:103F0C00B9807B68DB6AFB607B685B8D9BB2BB60B6
:103F1C00BB68032B21D97B681B681A697B685B6AB9
:103F2C00D2B21A707B685B6A5A1C7B685A627B68D7
:103F3C005B8D9BB2013B9AB27B685A857B685B8D2B
:103F4C009BB2032B40F096807B681B685A687B6899
:103F5C001B6822F480625A608CE07B68DB6A022B5F
:103F6C007FD0BB68012B02D0BB68002B79D178685D
:103F7C0001F0A6FB0346002B4CD17B681B681A682A
:103F8C007B681B6822F480621A607B681B685A6825
:103F9C007B681B6822F4E0625A607B681B681A69B4
:103FAC007B685B6AD2B21A707B685B6A5A1C7B684E
:103FBC005A627B685B8D9BB2013B9AB27B685A85D7
:103FCC007B68202283F83D207B6893F83E30DBB27F
:103FDC00402B0AD17B68002283F83E207B680022AC
:103FEC001A637868FFF7BDFD44E07B68002283F814
:103FFC003E20FB68082B02D0FB68202B03D17B688A
:10400C0000221A6302E07B6812221A637868FFF7B9
:10401C0077FD2FE07B681B685A687B681B6822F46D
:10402C00E0625A607B681B681A697B685B6AD2B273
:10403C001A707B685B6A5A1C7B685A627B685B8D62
:10404C009BB2013B9AB27B685A857B68202283F82D
:10405C003D207B68002283F83E207868FFF78AFDBC
:10406C0008E07B681B685A687B681B6822F48062D6
:10407C005A60FFE700BF1037BD4680BD80B584B0E5
:10408C0000AF78607B68DB6AFB607B685B8D9BB202
:10409C00042B1BD17B681B685A687B681B6822F455
:1040AC0080625A607B681B681A697B685B6AD2B253
:1040BC001A707B685B6A5A1C7B685A627B685B8DE2
:1040CC009BB2013B9AB27B685A85C4E07B685B8DDE
:1040DC009BB2032B29D17B681B685A687B681B68D1
:1040EC0022F480625A60FB68042B0AD0FB68022B16
:1040FC0007D07B681B681A687B681B6822F4806297
:10410C001A607B681B681A697B685B6AD2B21A708A
:10411C007B685B6A5A1C7B685A627B685B8D9BB2BE
:10412C00013B9AB27B685A8595E07B685B8D9BB2AC
:10413C00022B7DD1FB68012B02D0FB68102B08D120
:10414C007B681B681A687B681B6822F480621A60A3
:10415C0016E0FB68042B02D0FB68022B08D17B68AD
:10416C001B681A687B681B6842F480621A6007E05F
:10417C007B681B681A687B681B6842F400721A60C3
:10418C007B681B681A697B685B6AD2B21A707B68A1
:10419C005B6A5A1C7B685A627B685B8D9BB2013BE5
:1041AC009AB27B685A857B681B681A697B685B6A64
:1041BC00D2B21A707B685B6A5A1C7B685A627B6845
:1041CC005B8D9BB2013B9AB27B685A857B681B68FE
:1041DC005A687B681B6822F440725A607B68202204
:1041EC0083F83D207B6893F83E30DBB2402B0AD13C
:1041FC007B68002283F83E207B6800221A63786873
:10420C00FFF7AFFC27E07B68002283F83E20FB68B9
:10421C00082B02D0FB68202B03D17B6800221A6389
:10422C0002E07B6812221A637868FFF769FC12E0DF
:10423C007B681B681A697B685B6AD2B21A707B68F0
:10424C005B6A5A1C7B685A627B685B8D9BB2013B34
:10425C009AB27B685A8500BF1037BD4680BD80B4CA
:10426C0083B000AF78607B6893F83E30DBB2402BB4
:10427C0017D17B681B6D002B09D17B685B6CDBB2A3
:10428C001A467B681B6802F0FE021A6167E07B68C5
:10429C005B6CDBB243F00103DAB27B681B681A611A
:1042AC005DE07B681B69B3F5804F33D17B6893F875
:1042BC003D30DBB2212B09D17B685B6CDBB21A463B
:1042CC007B681B6802F0FE021A6108E07B685B6C7D
:1042DC00DBB243F00103DAB27B681B681A617B68BE
:1042EC005B6B002B04D07B685B6B9B6A002B08D14B
:1042FC007B689B6B002B32D07B689B6B9B6A002B83
:10430C002DD07B681B685A687B681B6842F400627E
:10431C005A6024E07B681B6D002B0ED17B685B6CB4
:10432C009BB2DB11DBB203F00603DBB263F00F03CD
:10433C00DAB27B681B681A6111E07B681B6D012B7C
:10434C000DD17B685B6C9BB2DB11DBB203F0060317
:10435C00DBB263F00E03DAB27B681B681A6100BF34
:10436C000C37BD4680BC704780B483B000AF78601A
:10437C007B685B6CDAB27B681B681A617B685B6B71
:10438C00002B04D07B685B6B9B6A002B08D17B688D
:10439C009B6B002B0CD07B689B6B9B6A002B07D014
:1043AC007B681B685A687B681B6842F400625A6021
:1043BC0000BF0C37BD4680BC704780B491B000AFD5
:1043CC0078607B6893F83E3087F83F307B68DB6A17
:1043DC00BB637B681B6B7B637B6893F83D30DBB204
:1043EC00222B40F074817B681B6D002B0FD197F84A
:1043FC003F30402B0BD100233B637B681B685B6910
:10440C003B637B681B689B693B633B6B6BE17B6825
:10441C001B6D002B1DD17B681B69B3F5404F18D168
:10442C000023FB627B681B685B69FB627B681B6813
:10443C009B69FB62FB6A7B681B681A687B681B685C
:10444C0042F480721A607B681B6D5A1C7B681A657B
:10445C0049E17B685B8D9BB2002B13D10023BB62BF
:10446C007B681B685B69BB627B681B689B69BB6272
:10447C00BB6A7B681B681A687B681B6842F4007215
:10448C001A6020E17B685B8D9BB2012B40F08A8027
:10449C00BB6B13F5803F37D17B681B681A687B6850
:1044AC001B6822F480621A607B681B685B6803F4EB
:1044BC000063B3F5006F13D17B681B681A687B68C7
:1044CC001B6822F480621A6000237B627B681B6885
:1044DC005B697B627B681B689B697B627B6AF2E031
:1044EC0000233B627B681B685B693B627B681B68D3
:1044FC009B693B623B6A7B681B681A687B681B681C
:10450C0042F400721A60DEE0BB6B082B2ED0BB6B42
:10451C00202B2BD07B6B122B02D1BB6B012B25D10B
:10452C00BB6B042B0ED0BB6B022B0BD0BB6B102BBD
:10453C0008D07B681B681A687B681B6822F4806251
:10454C001A6007E07B681B681A687B681B6842F47A
:10455C0080621A600023FB617B681B685B69FB61EE
:10456C007B681B689B69FB61FB69ACE07B681B6823
:10457C001A687B681B6822F480621A600023BB6196
:10458C007B681B685B69BB617B681B689B69BB6153
:10459C00BB697B681B681A687B681B6842F40072F5
:1045AC001A6090E07B685B8D9BB2022B58D1BB6B81
:1045BC00042B21D0BB6B022B1ED0BB6B102B1BD042
:1045CC007B681B681A687B681B6842F400621A607F
:1045DC0000237B617B681B685B697B617B681B6864
:1045EC009B697B617B697B681B681A687B681B68AD
:1045FC0022F480621A6012E07B681B681A687B6880
:10460C001B6842F480621A6000233B617B681B6864
:10461C005B693B617B681B689B693B613B697B68A1
:10462C001B685B6803F40063B3F5006F4BD1BB6B85
:10463C0013F5803F0BD0BB6B012B08D0BB6B082B49
:10464C0005D0BB6B102B02D0BB6B202B3BD17B68F6
:10465C001B685A687B681B6842F480525A6032E0CF
:10466C007B681B681A687B681B6842F480621A605E
:10467C007B681B685B6803F40063B3F5006F17D1AC
:10468C00BB6B13F5803F0BD0BB6B012B08D0BB6B06
:10469C00082B05D0BB6B102B02D0BB6B202B07D18A
:1046AC007B681B685A687B681B6842F480525A60AE
:1046BC000023FB607B681B685B69FB607B681B6885
:1046CC009B69FB60FB687B6800221A650BE000238A
:1046DC00BB607B681B685B69BB607B681B689B6904
:1046EC00BB60BB68FFE700BF4437BD4680BC70476A
:1046FC0080B584B000AF78607B6893F83D30FB7375
:10470C007B685B8D9BB2002B2BD07B685B6A1A7825
:10471C007B681B681A617B685B6A5A1C7B685A62EF
:10472C007B685B8D9BB2013B9AB27B685A857B6838
:10473C005B8D9BB2002B14D1FB7B292B11D17B6899
:10474C001B685A687B681B6822F480625A607B681D
:10475C0021221A637B68282283F83D207868FFF7B2
:10476C00D8F900BF1037BD4680BD80B483B000AF10
:10477C0078607B685B8D9BB2002B11D07B685B6A89
:10478C001A787B681B681A617B685B6A5A1C7B68A9
:10479C005A627B685B8D9BB2013B9AB27B685A85EF
:1047AC0000BF0C37BD4680BC704780B584B000AFED
:1047BC0078607B6893F83D30FB737B685B8D9BB2B4
:1047CC00002B2CD07B681B681A697B685B6AD2B2A1
:1047DC001A707B685B6A5A1C7B685A627B685B8DBB
:1047EC009BB2013B9AB27B685A857B685B8D9BB20E
:1047FC00002B14D1FB7B2A2B11D17B681B685A68C8
:10480C007B681B6822F480625A607B6822221A63E0
:10481C007B68282283F83D207868FFF783F900BF76
:10482C001037BD4680BD80B483B000AF78607B6824
:10483C005B8D9BB2002B12D07B681B681A697B685E
:10484C005B6AD2B21A707B685B6A5A1C7B685A62CC
:10485C007B685B8D9BB2013B9AB27B685A8500BF2B
:10486C000C37BD4680BC704780B584B000AF786013
:10487C0039600023FB737B6893F83D30DBB203F0A7
:10488C002803282B27D17B681B685A687B681B6818
:10489C0022F480625A603B689B0803F00103002BF2
:1048AC0001D10123FB733B68DB0903F00103002BEF
:1048BC0003D17B68DB68BB8102E07B689B69BB81B1
:1048CC007B68002283F83C20BA89FB7B1946786808
:1048DC00FFF731F90EE00023BB607B681B685B6956
:1048EC00BB607B681B689B69BB60BB687B680022F4
:1048FC0083F83C2000BF1037BD4680BD80B584B026
:10490C0000AF78607B6893F83D30FB737B681B6865
:10491C005A687B681B6822F4E0625A600023BB6013
:10492C007B681B685B69BB607B681B681A687B686B
:10493C001B6842F001021A60BB687B681B681A682E
:10494C007B681B6822F480621A607B681B685B685A
:10495C0003F40063B3F5006F72D1FB7B222B02D002
:10496C00FB7B2A2B35D17B689B6B1B685B689AB2EF
:10497C007B685A857B685B8D9BB2002B05D07B686E
:10498C001B6C43F004027B681A647B681B685A68D2
:10499C007B681B6822F400625A607B689B6B18462C
:1049AC00FEF784F80346012B49D07B689B6B694A60
:1049BC005A637B689B6B1846FDF7FAFE0346002B87
:1049CC003DD07B689B6B5B6B7A68926B104698470B
:1049DC0035E07B685B6B1B685B689AB27B685A85B9
:1049EC007B685B8D9BB2002B05D07B681B6C43F006
:1049FC0004027B681A647B681B685A687B681B68B6
:104A0C0022F400625A607B685B6B1846FEF74EF826
:104A1C000346012B14D07B685B6B4E4A5A637B6850
:104A2C005B6B1846FDF7C4FE0346002B08D07B6871
:104A3C005B6B5B6B7A68526B1046984700E000BF6B
:104A4C007B685B8D9BB2002B3ED07B681B685B69DF
:104A5C0003F00403042B12D17B681B681A697B6872
:104A6C005B6AD2B21A707B685B6A5A1C7B685A62AA
:104A7C007B685B8D9BB2013B9AB27B685A857B68E5
:104A8C001B685B6903F04003402B12D17B681B68E9
:104A9C001A697B685B6AD2B21A707B685B6A5A1CB3
:104AAC007B685A627B685B8D9BB2013B9AB27B68D8
:104ABC005A857B685B8D9BB2002B05D07B681B6C89
:104ACC0043F004027B681A647B681B6C002B03D0D8
:104ADC00786800F043F839E0FB7B2A2B09D17B681E
:104AEC0000221A637B68282283F83D207868FFF740
:104AFC0019F87B6893F83D30DBB2282B11D17B6819
:104B0C00154ADA627B6800221A637B68202283F8DC
:104B1C003D207B68002283F83E207868FFF718F868
:104B2C0014E07B681B6B222B02D0FB7B222B0DD15C
:104B3C007B6800221A637B68202283F83D207B6807
:104B4C00002283F83E207868FEF7ECFF00BF103798
:104B5C00BD4680BD295200080000FFFF80B584B01F
:104B6C0000AF78607B6893F83D30FB737B6893F8FB
:104B7C003E30BB73BB7B102B02D0BB7B402B0AD1CE
:104B8C00FB7B222B07D17B681B681A687B681B6830
:104B9C0022F400621A60FB7B03F02803282B07D158
:104BAC007B6800221A637B68282283F83D2015E07D
:104BBC007B681B685B6803F40063B3F5006F0AD075
:104BCC00FB7B602B07D07B68202283F83D207B6821
:104BDC00002283F83E207B6800221A637B681B68E6
:104BEC005B6803F40063B3F5006F62D17B681B68EC
:104BFC005A687B681B6822F400625A607B685B6BA6
:104C0C0093F82130DBB2012B20D07B685B6B6A4AB6
:104C1C005A637B685B6B1846FDF7CAFD0346002B95
:104C2C0000F089807B681B681A687B681B6822F01F
:104C3C0001021A607B68202283F83D207B685B6B45
:104C4C005B6B7A68526B1046984774E07B689B6B81
:104C5C00594A5A637B689B6B1846FDF7A9FD0346BE
:104C6C00002B68D07B681B685B6903F04003402B0A
:104C7C000BD17B681B681A697B685B6AD2B21A70AD
:104C8C007B685B6A5A1C7B685A627B681B681A6873
:104C9C007B681B6822F001021A607B68202283F873
:104CAC003D207B689B6B5B6B7A68926B10469847D8
:104CBC0041E07B6893F83D30DBB2602B25D17B68FB
:104CCC00202283F83D207B6800221A647B681B68D5
:104CDC005B6903F04003402B0BD17B681B681A699E
:104CEC007B685B6AD2B21A707B685B6A5A1C7B6801
:104CFC005A627B681B681A687B681B6822F0010289
:104D0C001A607868FEF73FFF15E07B681B685B69EB
:104D1C0003F04003402B0BD17B681B681A697B683E
:104D2C005B6AD2B21A707B685B6A5A1C7B685A62E7
:104D3C007868FEF71FFF7B681B6CBB60BB6803F0D9
:104D4C000103002B0ED1BB6803F00203002B09D129
:104D5C00BB6803F00403002B04D1BB6803F0080309
:104D6C00002B07D07B681B685A687B681B6822F491
:104D7C00E0625A607B6893F83D30FB737B681B6C78
:104D8C0003F00403042B13D1FB7B282B10D17B687D
:104D9C000A4ADA627B6800221A637B68202283F855
:104DAC003D207B68002283F83E207868FEF7D0FE19
:104DBC0000BF1037BD4680BD295200080000FFFF20
:104DCC0080B588B002AFF8607A603B600B467B819F
:104DDC00FB68DB6A7B617B69082B06D07B69012B46
:104DEC0003D07B6913F5803F08D1FB681B681A68F8
:104DFC00FB681B6842F480721A600BE0FB681B6B4B
:104E0C00122B07D1FB681B681A68FB681B6842F4FD
:104E1C0080721A603B6800937B6800224FF001118E
:104E2C00F86800F0A3FA0346002B0DD0FB681B6852
:104E3C001B6803F48073B3F5807F03D1FB684FF4D8
:104E4C0000721A64032335E0FB681B69B3F5804FCD
:104E5C0008D17B89DBB21A46FB681B6802F0FE02A4
:104E6C001A611BE07B89DB11DBB203F00603DBB2BA
:104E7C0063F00F03DAB2FB681B681A613B687A684F
:104E8C000E49F86800F0ECFA0346002B01D0012320
:104E9C0010E07B89DAB2FB681B681A613B687A68A0
:104EAC000749F86800F0DCFA0346002B01D0012317
:104EBC0000E0002318461837BD4680BD08000100ED
:104ECC000200010080B588B002AFF86008461146B8
:104EDC001A4603467B810B463B811346FB80FB68DD
:104EEC001B681A68FB681B6842F480721A607B6A44
:104EFC0000933B6A00224FF00111F86800F036FA7B
:104F0C000346002B0DD0FB681B681B6803F48073F1
:104F1C00B3F5807F03D1FB684FF400721A6403234E
:104F2C005FE07B89DBB21A46FB681B6802F0FE026D
:104F3C001A617B6A3A6A2D49F86800F091FA0346C7
:104F4C00002B01D001234CE000237B61FB681B6824
:104F5C005B697B61FB681B689B697B617B697A6A17
:104F6C00396AF86800F01CFB0346002B0DD0FB6877
:104F7C001B6C042B07D1FB681B681A68FB681B6849
:104F8C0042F400721A6001232BE0FB88012B05D13F
:104F9C003B89DAB2FB681B681A6121E03B891B0A6A
:104FAC009BB2DAB2FB681B681A617A6A396AF868D4
:104FBC0000F0F6FA0346002B0DD0FB681B6C042B9B
:104FCC0007D1FB681B681A68FB681B6842F4007207
:104FDC001A60012305E03B89DAB2FB681B681A6191
:104FEC00002318461837BD4680BD00BF02000100E3
:104FFC0080B586B000AF78607B685B6A7B617B694B
:10500C0093F83D30FB747B6993F83E30BB747B693D
:10501C00DB6AFB607B691B685A687B691B6822F43E
:10502C0040725A607B695B6B002B03D07B695B6BB6
:10503C0000229A627B699B6B002B03D07B699B6B74
:10504C0000229A62FB7C03F02103212B07D0FB7C0E
:10505C0003F02203222B31D1BB7C202B2ED17B6978
:10506C001B685A687B691B6822F400625A607B6972
:10507C0000225A85FB7C292B0AD17B6921221A63D9
:10508C007B69282283F83D207869FEF742FD0CE00D
:10509C00FB7C2A2B09D17B6922221A637B6928228B
:1050AC0083F83D207869FEF73DFD7B691B685A68E3
:1050BC007B691B6842F440725A6074E07B6993F818
:1050CC003E30DBB2002B6ED07B695B8D9BB2012B2B
:1050DC0007D17B691B681A687B691B6822F48062A4
:1050EC001A607B691B685A687B691B6822F44072E2
:1050FC005A60FB6813F5803F09D0FB68082B06D07B
:10510C00FB68B3F12A4F02D0FB68202B07D17B69D7
:10511C001B681A687B691B6842F400721A607B6911
:10512C001B685A687B691B6822F480525A607B6941
:10513C001B685A687B691B6822F400625A607B69A1
:10514C0000225A857B691B6C002B03D07869FEF713
:10515C0011FD28E07B69202283F83D207B6993F8C0
:10516C003E30DBB2402B0AD17B69002283F83E2013
:10517C007B6900221A637869FEF7F3FC13E07B6904
:10518C00002283F83E20FB68082B02D0FB68202B02
:10519C0003D17B6900221A6302E07B6912221A6335
:1051AC007869FEF7ADFC00BF1837BD4680BD80B5F1
:1051BC0084B000AF78607B685B6AFB60FB685B6BFC
:1051CC00002B03D0FB685B6B00229A62FB689B6B25
:1051DC00002B03D0FB689B6B00229A62FB681B6858
:1051EC001A68FB681B6822F480621A60FB68002254
:1051FC005A85FB68202283F83D20FB68002283F847
:10520C003E20FB681B6C43F01002FB681A64F868C4
:10521C00FEF7B0FC00BF1037BD4680BD80B586B030
:10522C0000AF78600023FB607B685B6A7B617B6905
:10523C0093F83D30FB744B4B1B68DB084A4AA2FBCE
:10524C0003231A0A13469B001344DA00D31AFB609B
:10525C00FB68002B06D17B691B6C43F020027B6939
:10526C001A640AE0FB68013BFB607B691B681B68E6
:10527C0003F40073B3F5007FEAD07B695B6B002B02
:10528C0003D07B695B6B00229A627B699B6B002B62
:10529C0003D07B699B6B00229A627B691B681A683E
:1052AC007B691B6822F480621A607B6900225A8534
:1052BC007B695B6B002B03D07B695B6B00225A63B1
:1052CC007B699B6B002B03D07B699B6B00225A6321
:1052DC007B691B681A687B691B6822F001021A60E3
:1052EC007B6993F83D30DBB2602B0ED17B692022B9
:1052FC0083F83D207B69002283F83E207B690022E5
:10530C001A647869FEF73FFC27E0FB7C03F0280366
:10531C00282B17D17B691B681A687B691B6842F0C4
:10532C0001021A607B691B681A687B691B6842F46E
:10533C0080621A607B6900221A637B69282283F8D9
:10534C003D2007E07B69202283F83D207B69002209
:10535C0083F83E207869FEF70DFC00BF1837BD4678
:10536C0080BD00BF0C00002089B5F81480B584B056
:10537C0000AFF860B9603B601346FB7148E03B68D6
:10538C00B3F1FF3F44D0FCF77FFC0246BB69D31A54
:10539C003A689A4202D33B68002B39D1BB681B0C8C
:1053AC00DBB2012B0DD1FB681B685B69DA43BB6870
:1053BC0013409BB2002B0CBF01230023DBB21A4617
:1053CC000CE0FB681B689B69DA43BB6813409BB21B
:1053DC00002B0CBF01230023DBB21A46FB799A4247
:1053EC0016D1FB6800221A63FB68202283F83D204B
:1053FC00FB68002283F83E20FB681B6C43F0200204
:10540C00FB681A64FB68002283F83C20012323E02C
:10541C00BB681B0CDBB2012B0DD1FB681B685B69F5
:10542C00DA43BB6813409BB2002B0CBF0123002353
:10543C00DBB21A460CE0FB681B689B69DA43BB685D
:10544C0013409BB2002B0CBF01230023DBB21A4686
:10545C00FB799A4293D0002318461037BD4680BD85
:10546C0080B584B000AFF860B9607A603B6071E0E1
:10547C00FB681B685B6903F48063B3F5806F23D111
:10548C00FB681B681A68FB681B6842F400721A60A0
:10549C00FB681B686FF480625A61FB6800221A6318
:1054AC00FB68202283F83D20FB68002283F83E2015
:1054BC00FB681B6C43F00402FB681A64FB68002257
:1054CC0083F83C20012367E07B68B3F1FF3F41D0B8
:1054DC00FCF7DAFB02463B68D31A7A689A4202D38D
:1054EC007B68002B36D1BB681B0CDBB2012B0CD1BB
:1054FC00FB681B685B69DA43BB6813409BB2002BEB
:10550C0014BF01230023DBB20BE0FB681B689B6913
:10551C00DA43BB6813409BB2002B14BF012300235A
:10552C00DBB2002B16D0FB6800221A63FB6820222A
:10553C0083F83D20FB68002283F83E20FB681B6C3F
:10554C0043F02002FB681A64FB68002283F83C20BD
:10555C00012321E0BB681B0CDBB2012B0CD1FB68D7
:10556C001B685B69DA43BB6813409BB2002B14BF0A
:10557C0001230023DBB20BE0FB681B689B69DA4359
:10558C00BB6813409BB2002B14BF01230023DBB27A
:10559C00002B7FF46DAF002318461037BD4680BD3D
:1055AC0080B584B000AFF860B9607A6034E0F86818
:1055BC0000F0B8F80346002B01D0012334E0BB689F
:1055CC00B3F1FF3F28D0FCF75FFB02467B68D31A90
:1055DC00BA689A4202D3BB68002B1DD1FB681B68CA
:1055EC005B6903F08003802B16D0FB6800221A63E2
:1055FC00FB68202283F83D20FB68002283F83E20C4
:10560C00FB681B6C43F02002FB681A64FB680022E9
:10561C0083F83C20012307E0FB681B685B6903F0FF
:10562C008003802BC3D1002318461037BD4680BDA4
:10563C0080B584B000AFF860B9607A6034E0F86887
:10564C0000F070F80346002B01D0012334E0BB6856
:10565C00B3F1FF3F28D0FCF717FB02467B68D31A47
:10566C00BA689A4202D3BB68002B1DD1FB681B6839
:10567C005B6903F00403042B16D0FB6800221A6349
:10568C00FB68202283F83D20FB68002283F83E2033
:10569C00FB681B6C43F02002FB681A64FB68002259
:1056AC0083F83C20012307E0FB681B685B6903F06F
:1056BC000403042BC3D1002318461037BD4680BD0C
:1056CC0080B485B000AF78600023FB60134B1B687F
:1056DC00DB08134AA2FB03231A0A13469B0013444C
:1056EC00FB60FB68013BFB60FB68002B07D17B6810
:1056FC001B6C43F020027B681A64012308E07B6872
:10570C001B681B6803F40073B3F5007FE9D000231A
:10571C0018461437BD4680BC704700BF0C000020F3
:10572C0089B5F81480B483B000AF78607B681B68CF
:10573C005B6903F48063B3F5806F1BD17B681B68D6
:10574C006FF480625A617B6800221A637B682022A6
:10575C0083F83D207B68002283F83E207B681B6C1D
:10576C0043F004027B681A647B68002283F83C20B7
:10577C00012300E0002318460C37BD4680BC70475F
:10578C0080B483B000AF78607B68DB6AB3F52A0F16
:10579C0003D17B680122DA6207E07B68DB6AB3F134
:1057AC002A4F02D17B680822DA6200BF0C37BD4653
:1057BC0080BC704780B584B000AF78607B68002BEC
:1057CC0001D10123E8E07B6893F89132DBB2002B26
:1057DC0006D17B68002283F89022786807F04EF996
:1057EC007B68032283F891227B6800225A717B68C4
:1057FC001B68184603F046F87B6818687B6804330E
:10580C000ECB03F01CF80346002B05D07B6802225C
:10581C0083F891220123BFE07B681B6800211846A6
:10582C0003F04AF80346002B05D07B68022283F86C
:10583C0091220123B0E00023FB733EE0FA7B7968F0
:10584C0013469B001344DB000B44113301221A70E6
:10585C00FA7B796813469B001344DB000B4410332E
:10586C00FA7B1A70FA7B796813469B001344DB00B1
:10587C000B44133300221A70FA7B796813469B0091
:10588C001344DB000B44203300221A60FA7B796846
:10589C0013469B001344DB000B44243300221A6094
:1058AC00FB7B79685A1C13469B001344DB000B44AA
:1058BC0000221A60FB7B0133FB737B681B79FA7B3C
:1058CC009A42BBD30023FB7344E0FA7B79681346FE
:1058DC009B001344DB000B4403F2511300221A709B
:1058EC00FA7B796813469B001344DB000B4403F5E9
:1058FC00A873FA7B1A70FA7B796813469B001344E1
:10590C00DB000B4403F2531300221A70FA7B796804
:10591C0013469B001344DB000B4403F5B0730022C9
:10592C001A60FA7B796813469B001344DB000B4426
:10593C0003F5B27300221A60FA7B796813469B0058
:10594C001344DB000B4403F5B47300221A60FB7B99
:10595C000133FB737B681B79FA7B9A42B5D37B6866
:10596C0018687B6804330ECB02F0B2FF0346002BA1
:10597C0005D07B68022283F8912201230CE07B681E
:10598C0000225A737B68012283F891227B681B6882
:10599C00184605F032FA002318461037BD4680BD74
:1059AC0080B582B000AF78607B6893F89032012BA1
:1059BC0001D1022316E07B68012283F890227B68D8
:1059CC001B68184602F048FF0121786807F0C9FAF5
:1059DC007B681B68184605F006FA7B68002283F882
:1059EC009022002318460837BD4680BD80B588B08C
:1059FC0000AF78607B681B68184605F008FAB86140
:105A0C00BB6903F40043002B03D0786800F01AFB49
:105A1C0019E1BB6903F48063002B13D07B681B680E
:105A2C00B3F844309AB27B681B6822F4806292B25D
:105A3C00A3F84420786807F09CF80021786800F0FF
:105A4C0005F900E1BB6903F48043002B0CD07B68A3
:105A5C001B68B3F844309AB27B681B6822F480420E
:105A6C0092B2A3F84420EEE0BB6903F40053002B80
:105A7C000CD07B681B68B3F844309AB27B681B6807
:105A8C0022F4005292B2A3F84420DCE0BB6903F488
:105A9C008053002B27D07B681B68B3F840309AB238
:105AAC007B681B6822F0040292B2A3F840207B684A
:105ABC001B68B3F840309AB27B681B6822F008026E
:105ACC0092B2A3F84020786807F08CF87B681B68CA
